{
	"data": {
		"bytecode": {
			"linkReferences": {},
			"object": "60808060405234610093576001600081815590547f8be0079c531659141344cd1fd0a4f28419497f9722a3daafe3b4186f6b6457e090336001600160a01b038216838580a360018060a01b031973cd9b5d2fb4a13e95c39bd6d76a13cf5862ad35c981600454161760045560326005556127108060065560085580331691161760015533908280a3611d0490816100998239f35b600080fdfe608080604052600436101561001357600080fd5b600090813560e01c90816301ffc9a7146118a757508063150b7a0214611850578063180b0d7e146118325780631b467687146116e85780631ddb7ff4146116ca57806334a7f193146116ac5780634127535814611683578063473be604146115e557806352f7c988146115c45780636ec150db146115535780636f56a55a14611530578063715018a6146114d35780638705fcd41461149357806387506a0d146114755780638da5cb5b1461144c5780639f3782b2146112ef578063a69c330f14610a80578063a6e22b0214610819578063a759c21414610464578063bc197c81146103d6578063e86dea4a146103b8578063ebcc882014610217578063f23a6e61146101bc5763f2fde38b1461012957600080fd5b346101b95760203660031901126101b9576101426118fc565b61014a611aa0565b6001600160a01b038116156101655761016290611af8565b80f35b60405162461bcd60e51b815260206004820152602660248201527f4f776e61626c653a206e6577206f776e657220697320746865207a65726f206160448201526564647265737360d01b6064820152608490fd5b80fd5b50346101b95760a03660031901126101b9576101d66118fc565b506101df611917565b5060843567ffffffffffffffff8111610213576102009036906004016119b2565b5060405163f23a6e6160e01b8152602090f35b5080fd5b50346101b95760203660031901126101b95780604091610120835161023b81611973565b82815282602082015282858201528260608201528260808201528260a08201528260c08201528260e0820152826101008201520152600435815260076020522060086040519161028a83611973565b8054835260018101546001600160a01b039081166020850152600282015460408501526003820154811660608501526004808301549091166080850152600582015460a0850152600682015460c0850152600782015460e085015291015460ff811692918310156103a25760ff610313916101409461010085015260081c166101208301611b86565b6103a0610120604051928051845260018060a01b0360208201511660208501526040810151604085015260018060a01b03606082015116606085015260018060a01b03608082015116608085015260a081015160a085015260c081015160c085015260e081015160e0850152610393610100820151610100860190611a86565b0151610120830190611a93565bf35b634e487b7160e01b600052602160045260246000fd5b50346101b957806003193601126101b9576020600554604051908152f35b50346101b95760a03660031901126101b9576103f06118fc565b506103f9611917565b5067ffffffffffffffff6044358181116104605761041b903690600401611a1f565b5060643581811161046057610434903690600401611a1f565b506084359081116102135761044d9036906004016119b2565b5060405163bc197c8160e01b8152602090f35b8280fd5b50346101b95760c03660031901126101b95761047e6118fc565b610486611917565b60443591600260a43510156108155761049d611bde565b608435156107d0576064351561078b5760016002540190816002556040516104c481611973565b82815260018060a01b03821660208201528460408201523360608201526080810160018060a01b0385168152600860a0830192608435845260c08101606435815260e082019060643582526101008301956001875261012084019561052b60a43588611b86565b898d52600760205260408d209480518655600186019060018060a01b03602082015116916001600160601b0360a01b9283825416179055604081015160028801556003870190606060018060a01b039101511682825416179055600486019160018060a01b03905116908254161790555160058401555160068301555160078201550191516004811015610777576105c39083611b92565b51600281101561076357815461ff00191660089190911b61ff001617905560a4356106d6576001600160a01b0381163b156106c757604051632142170760e11b81523360048201523060248201526044810185905285908181606481836001600160a01b0388165af180156106cb576106b3575b505060e07f44d73994e00ca8eb9cdc3d4cf86803a731ec5481f7da41d13dbcd066f6ee914a915b604080513381526001600160a01b03909616602087015260843590860152606435606086018190526080860152600160a08601526106a160c0860160a435611a93565b6001600160a01b031693a46001815580f35b6106bc9061195f565b6106c7578438610637565b8480fd5b6040513d84823e3d90fd5b6001600160a01b0381163b156106c757604051637921219560e11b8152859081818061070a6064358a303360048601611baa565b0381836001600160a01b0388165af180156106cb5761074f575b505060e07f44d73994e00ca8eb9cdc3d4cf86803a731ec5481f7da41d13dbcd066f6ee914a9161065e565b6107589061195f565b6106c7578438610724565b634e487b7160e01b87526021600452602487fd5b634e487b7160e01b88526021600452602488fd5b60405162461bcd60e51b815260206004820152601d60248201527f616d6f756e74206d7573742062652067726561746572207468616e20300000006044820152606490fd5b60405162461bcd60e51b815260206004820152601c60248201527f5072696365206d7573742062652067726561746572207468616e2030000000006044820152606490fd5b8380fd5b50346101b9576020806003193601126102135760043590610838611bde565b81835260079182825260ff6008604086200154166004811015610a6c5780600161086b9214908115610a63575b50611c34565b80845282825260408420600301546001600160a01b039061088f9082163314611b41565b81855283835283604086200154816001604088200154169360026040882001549560ff600860408a20015460081c166002811015610a4f578891906109cc57863b1561021357604051632142170760e11b8152306004820152336024820152604481018990528281606481838c5af180156109c1576109a4575b509160c093917f6b5d0c0ed83fb2d9575d011e438e6430d5e68e0c9ea0fe2774fe797912a5953595935b87825280835260086040832001600260ff1982541617905587825280835260408220015582600360408b2001541692600460408b20015416600560408b20015490600660408c20015492604051958652850152604084015260608301526080820152600260a0820152a46001815580f35b916109b381969492959361195f565b6106c7579193909238610909565b6040513d85823e3d90fd5b863b1561021357604051637921219560e11b81528281806109f3888d333060048601611baa565b0381838c5af180156109c157610a32575b509160c093917f6b5d0c0ed83fb2d9575d011e438e6430d5e68e0c9ea0fe2774fe797912a595359593610933565b91610a4181969492959361195f565b6106c7579193909238610a04565b634e487b7160e01b89526021600452602489fd5b90501538610865565b634e487b7160e01b85526021600452602485fd5b5060a03660031901126101b957610a956118fc565b610a9d611917565b610aa5611bde565b60443583526007602052600760408420015491608435600560408620015403611285576044358452600760205260ff6008604086200154166004811015610a6c576001148015611260575b610af990611c34565b6044358452600760205260408420600401546001600160a01b03908116908316036112225760643583106111eb57610b35606435608435611c80565b92610b4260055485611c80565b936006549485156111d7576001600160a01b03841687526009602052604080882090519190610ba090600290610b778561192d565b80546001600160a01b039081168652600182015416602086015201546040840181905284611c80565b916008549384156111c35789896001600160a01b038a16156110cf575050604051636eb1769f60e11b81523360048201523060248201526020816044816001600160a01b038d165afa9081156110c4578b9161108e575b50610c06606435608435611c80565b11611049576020610c7891610c448b610c3f8e6044358152600786526003604060018060a01b039220015416938a8a0492890490611ca9565b611ca9565b6040516323b872dd60e01b81523360048201526001600160a01b039092166024830152604482015291829081906064820190565b03818d6001600160a01b038d165af1801561101f5761102a575b50878204610fa9575b838304610f28575b505b6044358852600760205260ff600860408a20015460081c16936002851015610a4f5784610e63576044358952600760205260408920600201548991906001600160a01b0388163b1561046057604051632142170760e11b815230600482015233602482015260448101919091528281606481836001600160a01b038d165af180156109c157610e44575b50926040988993610df89796936007610d58610ded985b60016003540160035560643590611ca9565b9c8d926044358152826020522001558a1515600014610e3457610d838c6008819788925b2001611b92565b6044358c526007602052600260408d2001549a8c6003604060018060a01b0392200154169a6040519b8c523360208d015260018060a01b031660408c015260843560608c015260643560808c015260a08b01520460c08901520460e0870152610100860190611a86565b610120840190611a93565b6001600160a01b031690604435907f2484d30eb15305f1a5d7fa13bb289117aa3dcee51442cc78df73fdc3323a465e9061014090a46001815580f35b610d838c60086003978892610d7c565b91610e548195929497969361195f565b61081557929093949138610d2f565b60443589526007602052604089206002015494989793949293926001600160a01b0387163b15610f245788610eb29160405180938192637921219560e11b835260643590333060048601611baa565b0381836001600160a01b038c165af18015610f1957610ee9575b5093879893610ded93604099938a946007610d58610df89a610d46565b93610ded9360409993610df8979360078c96610f08610d589f9a61195f565b9c5050939750935093509398610ecc565b6040513d8b823e3d90fd5b8880fd5b6020908101516040516323b872dd60e01b81523360048201526001600160a01b03909116602482015284840460448201529081806064810103818c6001600160a01b038c165af18015610f195715610ca357610f9b9060203d602011610fa2575b610f938183611990565b810190611cb6565b5038610ca3565b503d610f89565b600480546040516323b872dd60e01b815233928101929092526001600160a01b031660248201528883046044820152602081806064810103818d6001600160a01b038d165af1801561101f57611000575b50610c9b565b6110189060203d602011610fa257610f938183611990565b5038610ffa565b6040513d8c823e3d90fd5b6110429060203d602011610fa257610f938183611990565b5038610c92565b60405162461bcd60e51b815260206004820152601760248201527f546f6b656e20616c6c6f77616e636520746f6f206c6f770000000000000000006044820152606490fd5b90506020813d6020116110bc575b816110a960209383611990565b810103126110b8575138610bf7565b8a80fd5b3d915061109c565b6040513d8d823e3d90fd5b8180809594611103829460443584526007602052610c3f60018060a01b03600360408720015416938d8d04928c0490611ca9565b908282156111ba575bf1156111a35781898404158015611177575b5050848404158015611133575b505050610ca5565b60209091015182918291829182916001600160a01b03169061116d575b88880491f1156111625787388061112b565b6040513d89823e3d90fd5b6108fc9150611150565b60045482918291829182916001600160a01b0316908f906111b0575b890491f1156111a357813861111e565b50604051903d90823e3d90fd5b6108fc9250611193565b506108fc61110c565b634e487b7160e01b8a52601260045260248afd5b634e487b7160e01b87526012600452602487fd5b60405162461bcd60e51b815260206004820152600f60248201526e0d8cacce840dcdee840cadcdeeaced608b1b6044820152606490fd5b60405162461bcd60e51b815260206004820152601660248201527526b7b732bca6b4b73a20b2323932b9b99032b93937b960511b6044820152606490fd5b506044358452600760205260ff6008604086200154166004811015610a6c5715610af0565b608460405162461bcd60e51b815260206004820152604060248201527f506c65617365207375626d6974207468652061736b696e67207072696365206960448201527f6e206f7264657220746f20636f6d706c657465207468652070757263686173656064820152fd5b50346101b95760603660031901126101b9576113096118fc565b611311611917565b604051638da5cb5b60e01b81526001600160a01b03926044359290841691602091908281600481875afa908115611162578791611412575b5085339116036113e157907f8baf7874a723d5428f766589e41a388a0aeee0700ea5aeb3e1ffd0b9832293df918387526009825260026040519161138c8361192d565b8383018860408501923386528984521698898252878b52600986528060408c20955116906001600160601b0360a01b91828754161786556001860192511690825416179055519101556040519384523393a480f35b60405162461bcd60e51b81526004810183905260096024820152682737ba1037bbb732b960b91b6044820152606490fd5b90508281813d8311611445575b6114298183611990565b81010312611441575185811681036114415738611349565b8680fd5b503d61141f565b50346101b957806003193601126101b9576001546040516001600160a01b039091168152602090f35b50346101b957806003193601126101b9576020600354604051908152f35b50346101b95760203660031901126101b9576114ad6118fc565b6114b5611aa0565b60018060a01b03166001600160601b0360a01b600454161760045580f35b50346101b957806003193601126101b9576114ec611aa0565b600180546001600160a01b0319811690915581906001600160a01b03167f8be0079c531659141344cd1fd0a4f28419497f9722a3daafe3b4186f6b6457e08280a380f35b50346101b95760203660031901126101b95761154a611aa0565b60043560085580f35b50346101b95760203660031901126101b9576001600160a01b03906040908261157a6118fc565b168152600960205220906115c0600282845416926001850154169301546040519384938460409194939294606082019560018060a01b0380921683521660208201520152565b0390f35b50346101b9576115d336611a09565b906115dc611aa0565b60055560065580f35b50346101b957806003193601126101b9576001546001600160a01b03166116495761160f33611af8565b73cd9b5d2fb4a13e95c39bd6d76a13cf5862ad35c96001600160601b0360a01b600454161760045560326005556127108060065560085580f35b60405162461bcd60e51b8152602060048201526012602482015271105b1c9958591e481a5b9a5d185b1a5e995960721b6044820152606490fd5b50346101b957806003193601126101b9576004546040516001600160a01b039091168152602090f35b50346101b957806003193601126101b9576020600254604051908152f35b50346101b957806003193601126101b9576020600854604051908152f35b50346101b9576116f736611a09565b80156117ed5781835260206007815261172060018060a01b036003604087200154163314611b41565b8284526007815260ff6008604086200154166004811015610a6c5760011480156117cb575b15611788577f44e57822ef0f4678cd7edcab9e87f873c2de642e2c919997ca0ba679044a4a8c90838552600781528260056040872001556040519283523392a380f35b6064906040519062461bcd60e51b825280600483015260248201527f54686973206f726465722068617320616c726564792066696e6e69736865642e6044820152fd5b508284526007815260ff6008604086200154166004811015610a6c5715611745565b60405162461bcd60e51b815260206004820152601a60248201527f5072696365206d757374206d6f7265207468616e207a65726f2e0000000000006044820152606490fd5b50346101b957806003193601126101b9576020600654604051908152f35b50346101b95760803660031901126101b95761186a6118fc565b50611873611917565b5060643567ffffffffffffffff8111610213576118949036906004016119b2565b50604051630a85bd0160e11b8152602090f35b9050346102135760203660031901126102135760043563ffffffff60e01b81168091036104605760209250630271189760e51b81149081156118eb575b5015158152f35b6301ffc9a760e01b149050386118e4565b600435906001600160a01b038216820361191257565b600080fd5b602435906001600160a01b038216820361191257565b6060810190811067ffffffffffffffff82111761194957604052565b634e487b7160e01b600052604160045260246000fd5b67ffffffffffffffff811161194957604052565b610140810190811067ffffffffffffffff82111761194957604052565b90601f8019910116810190811067ffffffffffffffff82111761194957604052565b81601f820112156119125780359067ffffffffffffffff821161194957604051926119e7601f8401601f191660200185611990565b8284526020838301011161191257816000926020809301838601378301015290565b6040906003190112611912576004359060243590565b9080601f830112156119125781359067ffffffffffffffff8211611949578160051b60405193602093611a5485840187611990565b85528380860192820101928311611912578301905b828210611a77575050505090565b81358152908301908301611a69565b9060048210156103a25752565b9060028210156103a25752565b6001546001600160a01b03163303611ab457565b606460405162461bcd60e51b815260206004820152602060248201527f4f776e61626c653a2063616c6c6572206973206e6f7420746865206f776e65726044820152fd5b600180546001600160a01b039283166001600160a01b0319821681179092559091167f8be0079c531659141344cd1fd0a4f28419497f9722a3daafe3b4186f6b6457e0600080a3565b15611b4857565b60405162461bcd60e51b81526020600482015260166024820152752237903737ba103430bb32903832b936b4b9b9b4b7b760511b6044820152606490fd5b60028210156103a25752565b9060048110156103a25760ff80198354169116179055565b929060c0949260018060a01b0380921685521660208401526040830152606082015260a06080820152600060a08201520190565b600260005414611bef576002600055565b60405162461bcd60e51b815260206004820152601f60248201527f5265656e7472616e637947756172643a207265656e7472616e742063616c6c006044820152606490fd5b15611c3b57565b60405162461bcd60e51b815260206004820152601e60248201527f546869732053616c652068617320616c726564792066696e6e697368656400006044820152606490fd5b81810292918115918404141715611c9357565b634e487b7160e01b600052601160045260246000fd5b91908203918211611c9357565b9081602091031261191257518015158103611912579056fea264697066735822122062c1fd761d5bb4dcb5237b8ec5df739c780395dae725d7ccc09e1867b9ba953864736f6c63430008110033",
			"opcodes": "PUSH1 0x80 DUP1 PUSH1 0x40 MSTORE CALLVALUE PUSH2 0x93 JUMPI PUSH1 0x1 PUSH1 0x0 DUP2 DUP2 SSTORE SWAP1 SLOAD PUSH32 0x8BE0079C531659141344CD1FD0A4F28419497F9722A3DAAFE3B4186F6B6457E0 SWAP1 CALLER PUSH1 0x1 PUSH1 0x1 PUSH1 0xA0 SHL SUB DUP3 AND DUP4 DUP6 DUP1 LOG3 PUSH1 0x1 DUP1 PUSH1 0xA0 SHL SUB NOT PUSH20 0xCD9B5D2FB4A13E95C39BD6D76A13CF5862AD35C9 DUP2 PUSH1 0x4 SLOAD AND OR PUSH1 0x4 SSTORE PUSH1 0x32 PUSH1 0x5 SSTORE PUSH2 0x2710 DUP1 PUSH1 0x6 SSTORE PUSH1 0x8 SSTORE DUP1 CALLER AND SWAP2 AND OR PUSH1 0x1 SSTORE CALLER SWAP1 DUP3 DUP1 LOG3 PUSH2 0x1D04 SWAP1 DUP2 PUSH2 0x99 DUP3 CODECOPY RETURN JUMPDEST PUSH1 0x0 DUP1 REVERT INVALID PUSH1 0x80 DUP1 PUSH1 0x40 MSTORE PUSH1 0x4 CALLDATASIZE LT ISZERO PUSH2 0x13 JUMPI PUSH1 0x0 DUP1 REVERT JUMPDEST PUSH1 0x0 SWAP1 DUP2 CALLDATALOAD PUSH1 0xE0 SHR SWAP1 DUP2 PUSH4 0x1FFC9A7 EQ PUSH2 0x18A7 JUMPI POP DUP1 PUSH4 0x150B7A02 EQ PUSH2 0x1850 JUMPI DUP1 PUSH4 0x180B0D7E EQ PUSH2 0x1832 JUMPI DUP1 PUSH4 0x1B467687 EQ PUSH2 0x16E8 JUMPI DUP1 PUSH4 0x1DDB7FF4 EQ PUSH2 0x16CA JUMPI DUP1 PUSH4 0x34A7F193 EQ PUSH2 0x16AC JUMPI DUP1 PUSH4 0x41275358 EQ PUSH2 0x1683 JUMPI DUP1 PUSH4 0x473BE604 EQ PUSH2 0x15E5 JUMPI DUP1 PUSH4 0x52F7C988 EQ PUSH2 0x15C4 JUMPI DUP1 PUSH4 0x6EC150DB EQ PUSH2 0x1553 JUMPI DUP1 PUSH4 0x6F56A55A EQ PUSH2 0x1530 JUMPI DUP1 PUSH4 0x715018A6 EQ PUSH2 0x14D3 JUMPI DUP1 PUSH4 0x8705FCD4 EQ PUSH2 0x1493 JUMPI DUP1 PUSH4 0x87506A0D EQ PUSH2 0x1475 JUMPI DUP1 PUSH4 0x8DA5CB5B EQ PUSH2 0x144C JUMPI DUP1 PUSH4 0x9F3782B2 EQ PUSH2 0x12EF JUMPI DUP1 PUSH4 0xA69C330F EQ PUSH2 0xA80 JUMPI DUP1 PUSH4 0xA6E22B02 EQ PUSH2 0x819 JUMPI DUP1 PUSH4 0xA759C214 EQ PUSH2 0x464 JUMPI DUP1 PUSH4 0xBC197C81 EQ PUSH2 0x3D6 JUMPI DUP1 PUSH4 0xE86DEA4A EQ PUSH2 0x3B8 JUMPI DUP1 PUSH4 0xEBCC8820 EQ PUSH2 0x217 JUMPI DUP1 PUSH4 0xF23A6E61 EQ PUSH2 0x1BC JUMPI PUSH4 0xF2FDE38B EQ PUSH2 0x129 JUMPI PUSH1 0x0 DUP1 REVERT JUMPDEST CALLVALUE PUSH2 0x1B9 JUMPI PUSH1 0x20 CALLDATASIZE PUSH1 0x3 NOT ADD SLT PUSH2 0x1B9 JUMPI PUSH2 0x142 PUSH2 0x18FC JUMP JUMPDEST PUSH2 0x14A PUSH2 0x1AA0 JUMP JUMPDEST PUSH1 0x1 PUSH1 0x1 PUSH1 0xA0 SHL SUB DUP2 AND ISZERO PUSH2 0x165 JUMPI PUSH2 0x162 SWAP1 PUSH2 0x1AF8 JUMP JUMPDEST DUP1 RETURN JUMPDEST PUSH1 0x40 MLOAD PUSH3 0x461BCD PUSH1 0xE5 SHL DUP2 MSTORE PUSH1 0x20 PUSH1 0x4 DUP3 ADD MSTORE PUSH1 0x26 PUSH1 0x24 DUP3 ADD MSTORE PUSH32 0x4F776E61626C653A206E6577206F776E657220697320746865207A65726F2061 PUSH1 0x44 DUP3 ADD MSTORE PUSH6 0x646472657373 PUSH1 0xD0 SHL PUSH1 0x64 DUP3 ADD MSTORE PUSH1 0x84 SWAP1 REVERT JUMPDEST DUP1 REVERT JUMPDEST POP CALLVALUE PUSH2 0x1B9 JUMPI PUSH1 0xA0 CALLDATASIZE PUSH1 0x3 NOT ADD SLT PUSH2 0x1B9 JUMPI PUSH2 0x1D6 PUSH2 0x18FC JUMP JUMPDEST POP PUSH2 0x1DF PUSH2 0x1917 JUMP JUMPDEST POP PUSH1 0x84 CALLDATALOAD PUSH8 0xFFFFFFFFFFFFFFFF DUP2 GT PUSH2 0x213 JUMPI PUSH2 0x200 SWAP1 CALLDATASIZE SWAP1 PUSH1 0x4 ADD PUSH2 0x19B2 JUMP JUMPDEST POP PUSH1 0x40 MLOAD PUSH4 0xF23A6E61 PUSH1 0xE0 SHL DUP2 MSTORE PUSH1 0x20 SWAP1 RETURN JUMPDEST POP DUP1 REVERT JUMPDEST POP CALLVALUE PUSH2 0x1B9 JUMPI PUSH1 0x20 CALLDATASIZE PUSH1 0x3 NOT ADD SLT PUSH2 0x1B9 JUMPI DUP1 PUSH1 0x40 SWAP2 PUSH2 0x120 DUP4 MLOAD PUSH2 0x23B DUP2 PUSH2 0x1973 JUMP JUMPDEST DUP3 DUP2 MSTORE DUP3 PUSH1 0x20 DUP3 ADD MSTORE DUP3 DUP6 DUP3 ADD MSTORE DUP3 PUSH1 0x60 DUP3 ADD MSTORE DUP3 PUSH1 0x80 DUP3 ADD MSTORE DUP3 PUSH1 0xA0 DUP3 ADD MSTORE DUP3 PUSH1 0xC0 DUP3 ADD MSTORE DUP3 PUSH1 0xE0 DUP3 ADD MSTORE DUP3 PUSH2 0x100 DUP3 ADD MSTORE ADD MSTORE PUSH1 0x4 CALLDATALOAD DUP2 MSTORE PUSH1 0x7 PUSH1 0x20 MSTORE KECCAK256 PUSH1 0x8 PUSH1 0x40 MLOAD SWAP2 PUSH2 0x28A DUP4 PUSH2 0x1973 JUMP JUMPDEST DUP1 SLOAD DUP4 MSTORE PUSH1 0x1 DUP2 ADD SLOAD PUSH1 0x1 PUSH1 0x1 PUSH1 0xA0 SHL SUB SWAP1 DUP2 AND PUSH1 0x20 DUP6 ADD MSTORE PUSH1 0x2 DUP3 ADD SLOAD PUSH1 0x40 DUP6 ADD MSTORE PUSH1 0x3 DUP3 ADD SLOAD DUP2 AND PUSH1 0x60 DUP6 ADD MSTORE PUSH1 0x4 DUP1 DUP4 ADD SLOAD SWAP1 SWAP2 AND PUSH1 0x80 DUP6 ADD MSTORE PUSH1 0x5 DUP3 ADD SLOAD PUSH1 0xA0 DUP6 ADD MSTORE PUSH1 0x6 DUP3 ADD SLOAD PUSH1 0xC0 DUP6 ADD MSTORE PUSH1 0x7 DUP3 ADD SLOAD PUSH1 0xE0 DUP6 ADD MSTORE SWAP2 ADD SLOAD PUSH1 0xFF DUP2 AND SWAP3 SWAP2 DUP4 LT ISZERO PUSH2 0x3A2 JUMPI PUSH1 0xFF PUSH2 0x313 SWAP2 PUSH2 0x140 SWAP5 PUSH2 0x100 DUP6 ADD MSTORE PUSH1 0x8 SHR AND PUSH2 0x120 DUP4 ADD PUSH2 0x1B86 JUMP JUMPDEST PUSH2 0x3A0 PUSH2 0x120 PUSH1 0x40 MLOAD SWAP3 DUP1 MLOAD DUP5 MSTORE PUSH1 0x1 DUP1 PUSH1 0xA0 SHL SUB PUSH1 0x20 DUP3 ADD MLOAD AND PUSH1 0x20 DUP6 ADD MSTORE PUSH1 0x40 DUP2 ADD MLOAD PUSH1 0x40 DUP6 ADD MSTORE PUSH1 0x1 DUP1 PUSH1 0xA0 SHL SUB PUSH1 0x60 DUP3 ADD MLOAD AND PUSH1 0x60 DUP6 ADD MSTORE PUSH1 0x1 DUP1 PUSH1 0xA0 SHL SUB PUSH1 0x80 DUP3 ADD MLOAD AND PUSH1 0x80 DUP6 ADD MSTORE PUSH1 0xA0 DUP2 ADD MLOAD PUSH1 0xA0 DUP6 ADD MSTORE PUSH1 0xC0 DUP2 ADD MLOAD PUSH1 0xC0 DUP6 ADD MSTORE PUSH1 0xE0 DUP2 ADD MLOAD PUSH1 0xE0 DUP6 ADD MSTORE PUSH2 0x393 PUSH2 0x100 DUP3 ADD MLOAD PUSH2 0x100 DUP7 ADD SWAP1 PUSH2 0x1A86 JUMP JUMPDEST ADD MLOAD PUSH2 0x120 DUP4 ADD SWAP1 PUSH2 0x1A93 JUMP JUMPDEST RETURN JUMPDEST PUSH4 0x4E487B71 PUSH1 0xE0 SHL PUSH1 0x0 MSTORE PUSH1 0x21 PUSH1 0x4 MSTORE PUSH1 0x24 PUSH1 0x0 REVERT JUMPDEST POP CALLVALUE PUSH2 0x1B9 JUMPI DUP1 PUSH1 0x3 NOT CALLDATASIZE ADD SLT PUSH2 0x1B9 JUMPI PUSH1 0x20 PUSH1 0x5 SLOAD PUSH1 0x40 MLOAD SWAP1 DUP2 MSTORE RETURN JUMPDEST POP CALLVALUE PUSH2 0x1B9 JUMPI PUSH1 0xA0 CALLDATASIZE PUSH1 0x3 NOT ADD SLT PUSH2 0x1B9 JUMPI PUSH2 0x3F0 PUSH2 0x18FC JUMP JUMPDEST POP PUSH2 0x3F9 PUSH2 0x1917 JUMP JUMPDEST POP PUSH8 0xFFFFFFFFFFFFFFFF PUSH1 0x44 CALLDATALOAD DUP2 DUP2 GT PUSH2 0x460 JUMPI PUSH2 0x41B SWAP1 CALLDATASIZE SWAP1 PUSH1 0x4 ADD PUSH2 0x1A1F JUMP JUMPDEST POP PUSH1 0x64 CALLDATALOAD DUP2 DUP2 GT PUSH2 0x460 JUMPI PUSH2 0x434 SWAP1 CALLDATASIZE SWAP1 PUSH1 0x4 ADD PUSH2 0x1A1F JUMP JUMPDEST POP PUSH1 0x84 CALLDATALOAD SWAP1 DUP2 GT PUSH2 0x213 JUMPI PUSH2 0x44D SWAP1 CALLDATASIZE SWAP1 PUSH1 0x4 ADD PUSH2 0x19B2 JUMP JUMPDEST POP PUSH1 0x40 MLOAD PUSH4 0xBC197C81 PUSH1 0xE0 SHL DUP2 MSTORE PUSH1 0x20 SWAP1 RETURN JUMPDEST DUP3 DUP1 REVERT JUMPDEST POP CALLVALUE PUSH2 0x1B9 JUMPI PUSH1 0xC0 CALLDATASIZE PUSH1 0x3 NOT ADD SLT PUSH2 0x1B9 JUMPI PUSH2 0x47E PUSH2 0x18FC JUMP JUMPDEST PUSH2 0x486 PUSH2 0x1917 JUMP JUMPDEST PUSH1 0x44 CALLDATALOAD SWAP2 PUSH1 0x2 PUSH1 0xA4 CALLDATALOAD LT ISZERO PUSH2 0x815 JUMPI PUSH2 0x49D PUSH2 0x1BDE JUMP JUMPDEST PUSH1 0x84 CALLDATALOAD ISZERO PUSH2 0x7D0 JUMPI PUSH1 0x64 CALLDATALOAD ISZERO PUSH2 0x78B JUMPI PUSH1 0x1 PUSH1 0x2 SLOAD ADD SWAP1 DUP2 PUSH1 0x2 SSTORE PUSH1 0x40 MLOAD PUSH2 0x4C4 DUP2 PUSH2 0x1973 JUMP JUMPDEST DUP3 DUP2 MSTORE PUSH1 0x1 DUP1 PUSH1 0xA0 SHL SUB DUP3 AND PUSH1 0x20 DUP3 ADD MSTORE DUP5 PUSH1 0x40 DUP3 ADD MSTORE CALLER PUSH1 0x60 DUP3 ADD MSTORE PUSH1 0x80 DUP2 ADD PUSH1 0x1 DUP1 PUSH1 0xA0 SHL SUB DUP6 AND DUP2 MSTORE PUSH1 0x8 PUSH1 0xA0 DUP4 ADD SWAP3 PUSH1 0x84 CALLDATALOAD DUP5 MSTORE PUSH1 0xC0 DUP2 ADD PUSH1 0x64 CALLDATALOAD DUP2 MSTORE PUSH1 0xE0 DUP3 ADD SWAP1 PUSH1 0x64 CALLDATALOAD DUP3 MSTORE PUSH2 0x100 DUP4 ADD SWAP6 PUSH1 0x1 DUP8 MSTORE PUSH2 0x120 DUP5 ADD SWAP6 PUSH2 0x52B PUSH1 0xA4 CALLDATALOAD DUP9 PUSH2 0x1B86 JUMP JUMPDEST DUP10 DUP14 MSTORE PUSH1 0x7 PUSH1 0x20 MSTORE PUSH1 0x40 DUP14 KECCAK256 SWAP5 DUP1 MLOAD DUP7 SSTORE PUSH1 0x1 DUP7 ADD SWAP1 PUSH1 0x1 DUP1 PUSH1 0xA0 SHL SUB PUSH1 0x20 DUP3 ADD MLOAD AND SWAP2 PUSH1 0x1 PUSH1 0x1 PUSH1 0x60 SHL SUB PUSH1 0xA0 SHL SWAP3 DUP4 DUP3 SLOAD AND OR SWAP1 SSTORE PUSH1 0x40 DUP2 ADD MLOAD PUSH1 0x2 DUP9 ADD SSTORE PUSH1 0x3 DUP8 ADD SWAP1 PUSH1 0x60 PUSH1 0x1 DUP1 PUSH1 0xA0 SHL SUB SWAP2 ADD MLOAD AND DUP3 DUP3 SLOAD AND OR SWAP1 SSTORE PUSH1 0x4 DUP7 ADD SWAP2 PUSH1 0x1 DUP1 PUSH1 0xA0 SHL SUB SWAP1 MLOAD AND SWAP1 DUP3 SLOAD AND OR SWAP1 SSTORE MLOAD PUSH1 0x5 DUP5 ADD SSTORE MLOAD PUSH1 0x6 DUP4 ADD SSTORE MLOAD PUSH1 0x7 DUP3 ADD SSTORE ADD SWAP2 MLOAD PUSH1 0x4 DUP2 LT ISZERO PUSH2 0x777 JUMPI PUSH2 0x5C3 SWAP1 DUP4 PUSH2 0x1B92 JUMP JUMPDEST MLOAD PUSH1 0x2 DUP2 LT ISZERO PUSH2 0x763 JUMPI DUP2 SLOAD PUSH2 0xFF00 NOT AND PUSH1 0x8 SWAP2 SWAP1 SWAP2 SHL PUSH2 0xFF00 AND OR SWAP1 SSTORE PUSH1 0xA4 CALLDATALOAD PUSH2 0x6D6 JUMPI PUSH1 0x1 PUSH1 0x1 PUSH1 0xA0 SHL SUB DUP2 AND EXTCODESIZE ISZERO PUSH2 0x6C7 JUMPI PUSH1 0x40 MLOAD PUSH4 0x21421707 PUSH1 0xE1 SHL DUP2 MSTORE CALLER PUSH1 0x4 DUP3 ADD MSTORE ADDRESS PUSH1 0x24 DUP3 ADD MSTORE PUSH1 0x44 DUP2 ADD DUP6 SWAP1 MSTORE DUP6 SWAP1 DUP2 DUP2 PUSH1 0x64 DUP2 DUP4 PUSH1 0x1 PUSH1 0x1 PUSH1 0xA0 SHL SUB DUP9 AND GAS CALL DUP1 ISZERO PUSH2 0x6CB JUMPI PUSH2 0x6B3 JUMPI JUMPDEST POP POP PUSH1 0xE0 PUSH32 0x44D73994E00CA8EB9CDC3D4CF86803A731EC5481F7DA41D13DBCD066F6EE914A SWAP2 JUMPDEST PUSH1 0x40 DUP1 MLOAD CALLER DUP2 MSTORE PUSH1 0x1 PUSH1 0x1 PUSH1 0xA0 SHL SUB SWAP1 SWAP7 AND PUSH1 0x20 DUP8 ADD MSTORE PUSH1 0x84 CALLDATALOAD SWAP1 DUP7 ADD MSTORE PUSH1 0x64 CALLDATALOAD PUSH1 0x60 DUP7 ADD DUP2 SWAP1 MSTORE PUSH1 0x80 DUP7 ADD MSTORE PUSH1 0x1 PUSH1 0xA0 DUP7 ADD MSTORE PUSH2 0x6A1 PUSH1 0xC0 DUP7 ADD PUSH1 0xA4 CALLDATALOAD PUSH2 0x1A93 JUMP JUMPDEST PUSH1 0x1 PUSH1 0x1 PUSH1 0xA0 SHL SUB AND SWAP4 LOG4 PUSH1 0x1 DUP2 SSTORE DUP1 RETURN JUMPDEST PUSH2 0x6BC SWAP1 PUSH2 0x195F JUMP JUMPDEST PUSH2 0x6C7 JUMPI DUP5 CODESIZE PUSH2 0x637 JUMP JUMPDEST DUP5 DUP1 REVERT JUMPDEST PUSH1 0x40 MLOAD RETURNDATASIZE DUP5 DUP3 RETURNDATACOPY RETURNDATASIZE SWAP1 REVERT JUMPDEST PUSH1 0x1 PUSH1 0x1 PUSH1 0xA0 SHL SUB DUP2 AND EXTCODESIZE ISZERO PUSH2 0x6C7 JUMPI PUSH1 0x40 MLOAD PUSH4 0x79212195 PUSH1 0xE1 SHL DUP2 MSTORE DUP6 SWAP1 DUP2 DUP2 DUP1 PUSH2 0x70A PUSH1 0x64 CALLDATALOAD DUP11 ADDRESS CALLER PUSH1 0x4 DUP7 ADD PUSH2 0x1BAA JUMP JUMPDEST SUB DUP2 DUP4 PUSH1 0x1 PUSH1 0x1 PUSH1 0xA0 SHL SUB DUP9 AND GAS CALL DUP1 ISZERO PUSH2 0x6CB JUMPI PUSH2 0x74F JUMPI JUMPDEST POP POP PUSH1 0xE0 PUSH32 0x44D73994E00CA8EB9CDC3D4CF86803A731EC5481F7DA41D13DBCD066F6EE914A SWAP2 PUSH2 0x65E JUMP JUMPDEST PUSH2 0x758 SWAP1 PUSH2 0x195F JUMP JUMPDEST PUSH2 0x6C7 JUMPI DUP5 CODESIZE PUSH2 0x724 JUMP JUMPDEST PUSH4 0x4E487B71 PUSH1 0xE0 SHL DUP8 MSTORE PUSH1 0x21 PUSH1 0x4 MSTORE PUSH1 0x24 DUP8 REVERT JUMPDEST PUSH4 0x4E487B71 PUSH1 0xE0 SHL DUP9 MSTORE PUSH1 0x21 PUSH1 0x4 MSTORE PUSH1 0x24 DUP9 REVERT JUMPDEST PUSH1 0x40 MLOAD PUSH3 0x461BCD PUSH1 0xE5 SHL DUP2 MSTORE PUSH1 0x20 PUSH1 0x4 DUP3 ADD MSTORE PUSH1 0x1D PUSH1 0x24 DUP3 ADD MSTORE PUSH32 0x616D6F756E74206D7573742062652067726561746572207468616E2030000000 PUSH1 0x44 DUP3 ADD MSTORE PUSH1 0x64 SWAP1 REVERT JUMPDEST PUSH1 0x40 MLOAD PUSH3 0x461BCD PUSH1 0xE5 SHL DUP2 MSTORE PUSH1 0x20 PUSH1 0x4 DUP3 ADD MSTORE PUSH1 0x1C PUSH1 0x24 DUP3 ADD MSTORE PUSH32 0x5072696365206D7573742062652067726561746572207468616E203000000000 PUSH1 0x44 DUP3 ADD MSTORE PUSH1 0x64 SWAP1 REVERT JUMPDEST DUP4 DUP1 REVERT JUMPDEST POP CALLVALUE PUSH2 0x1B9 JUMPI PUSH1 0x20 DUP1 PUSH1 0x3 NOT CALLDATASIZE ADD SLT PUSH2 0x213 JUMPI PUSH1 0x4 CALLDATALOAD SWAP1 PUSH2 0x838 PUSH2 0x1BDE JUMP JUMPDEST DUP2 DUP4 MSTORE PUSH1 0x7 SWAP2 DUP3 DUP3 MSTORE PUSH1 0xFF PUSH1 0x8 PUSH1 0x40 DUP7 KECCAK256 ADD SLOAD AND PUSH1 0x4 DUP2 LT ISZERO PUSH2 0xA6C JUMPI DUP1 PUSH1 0x1 PUSH2 0x86B SWAP3 EQ SWAP1 DUP2 ISZERO PUSH2 0xA63 JUMPI JUMPDEST POP PUSH2 0x1C34 JUMP JUMPDEST DUP1 DUP5 MSTORE DUP3 DUP3 MSTORE PUSH1 0x40 DUP5 KECCAK256 PUSH1 0x3 ADD SLOAD PUSH1 0x1 PUSH1 0x1 PUSH1 0xA0 SHL SUB SWAP1 PUSH2 0x88F SWAP1 DUP3 AND CALLER EQ PUSH2 0x1B41 JUMP JUMPDEST DUP2 DUP6 MSTORE DUP4 DUP4 MSTORE DUP4 PUSH1 0x40 DUP7 KECCAK256 ADD SLOAD DUP2 PUSH1 0x1 PUSH1 0x40 DUP9 KECCAK256 ADD SLOAD AND SWAP4 PUSH1 0x2 PUSH1 0x40 DUP9 KECCAK256 ADD SLOAD SWAP6 PUSH1 0xFF PUSH1 0x8 PUSH1 0x40 DUP11 KECCAK256 ADD SLOAD PUSH1 0x8 SHR AND PUSH1 0x2 DUP2 LT ISZERO PUSH2 0xA4F JUMPI DUP9 SWAP2 SWAP1 PUSH2 0x9CC JUMPI DUP7 EXTCODESIZE ISZERO PUSH2 0x213 JUMPI PUSH1 0x40 MLOAD PUSH4 0x21421707 PUSH1 0xE1 SHL DUP2 MSTORE ADDRESS PUSH1 0x4 DUP3 ADD MSTORE CALLER PUSH1 0x24 DUP3 ADD MSTORE PUSH1 0x44 DUP2 ADD DUP10 SWAP1 MSTORE DUP3 DUP2 PUSH1 0x64 DUP2 DUP4 DUP13 GAS CALL DUP1 ISZERO PUSH2 0x9C1 JUMPI PUSH2 0x9A4 JUMPI JUMPDEST POP SWAP2 PUSH1 0xC0 SWAP4 SWAP2 PUSH32 0x6B5D0C0ED83FB2D9575D011E438E6430D5E68E0C9EA0FE2774FE797912A59535 SWAP6 SWAP4 JUMPDEST DUP8 DUP3 MSTORE DUP1 DUP4 MSTORE PUSH1 0x8 PUSH1 0x40 DUP4 KECCAK256 ADD PUSH1 0x2 PUSH1 0xFF NOT DUP3 SLOAD AND OR SWAP1 SSTORE DUP8 DUP3 MSTORE DUP1 DUP4 MSTORE PUSH1 0x40 DUP3 KECCAK256 ADD SSTORE DUP3 PUSH1 0x3 PUSH1 0x40 DUP12 KECCAK256 ADD SLOAD AND SWAP3 PUSH1 0x4 PUSH1 0x40 DUP12 KECCAK256 ADD SLOAD AND PUSH1 0x5 PUSH1 0x40 DUP12 KECCAK256 ADD SLOAD SWAP1 PUSH1 0x6 PUSH1 0x40 DUP13 KECCAK256 ADD SLOAD SWAP3 PUSH1 0x40 MLOAD SWAP6 DUP7 MSTORE DUP6 ADD MSTORE PUSH1 0x40 DUP5 ADD MSTORE PUSH1 0x60 DUP4 ADD MSTORE PUSH1 0x80 DUP3 ADD MSTORE PUSH1 0x2 PUSH1 0xA0 DUP3 ADD MSTORE LOG4 PUSH1 0x1 DUP2 SSTORE DUP1 RETURN JUMPDEST SWAP2 PUSH2 0x9B3 DUP2 SWAP7 SWAP5 SWAP3 SWAP6 SWAP4 PUSH2 0x195F JUMP JUMPDEST PUSH2 0x6C7 JUMPI SWAP2 SWAP4 SWAP1 SWAP3 CODESIZE PUSH2 0x909 JUMP JUMPDEST PUSH1 0x40 MLOAD RETURNDATASIZE DUP6 DUP3 RETURNDATACOPY RETURNDATASIZE SWAP1 REVERT JUMPDEST DUP7 EXTCODESIZE ISZERO PUSH2 0x213 JUMPI PUSH1 0x40 MLOAD PUSH4 0x79212195 PUSH1 0xE1 SHL DUP2 MSTORE DUP3 DUP2 DUP1 PUSH2 0x9F3 DUP9 DUP14 CALLER ADDRESS PUSH1 0x4 DUP7 ADD PUSH2 0x1BAA JUMP JUMPDEST SUB DUP2 DUP4 DUP13 GAS CALL DUP1 ISZERO PUSH2 0x9C1 JUMPI PUSH2 0xA32 JUMPI JUMPDEST POP SWAP2 PUSH1 0xC0 SWAP4 SWAP2 PUSH32 0x6B5D0C0ED83FB2D9575D011E438E6430D5E68E0C9EA0FE2774FE797912A59535 SWAP6 SWAP4 PUSH2 0x933 JUMP JUMPDEST SWAP2 PUSH2 0xA41 DUP2 SWAP7 SWAP5 SWAP3 SWAP6 SWAP4 PUSH2 0x195F JUMP JUMPDEST PUSH2 0x6C7 JUMPI SWAP2 SWAP4 SWAP1 SWAP3 CODESIZE PUSH2 0xA04 JUMP JUMPDEST PUSH4 0x4E487B71 PUSH1 0xE0 SHL DUP10 MSTORE PUSH1 0x21 PUSH1 0x4 MSTORE PUSH1 0x24 DUP10 REVERT JUMPDEST SWAP1 POP ISZERO CODESIZE PUSH2 0x865 JUMP JUMPDEST PUSH4 0x4E487B71 PUSH1 0xE0 SHL DUP6 MSTORE PUSH1 0x21 PUSH1 0x4 MSTORE PUSH1 0x24 DUP6 REVERT JUMPDEST POP PUSH1 0xA0 CALLDATASIZE PUSH1 0x3 NOT ADD SLT PUSH2 0x1B9 JUMPI PUSH2 0xA95 PUSH2 0x18FC JUMP JUMPDEST PUSH2 0xA9D PUSH2 0x1917 JUMP JUMPDEST PUSH2 0xAA5 PUSH2 0x1BDE JUMP JUMPDEST PUSH1 0x44 CALLDATALOAD DUP4 MSTORE PUSH1 0x7 PUSH1 0x20 MSTORE PUSH1 0x7 PUSH1 0x40 DUP5 KECCAK256 ADD SLOAD SWAP2 PUSH1 0x84 CALLDATALOAD PUSH1 0x5 PUSH1 0x40 DUP7 KECCAK256 ADD SLOAD SUB PUSH2 0x1285 JUMPI PUSH1 0x44 CALLDATALOAD DUP5 MSTORE PUSH1 0x7 PUSH1 0x20 MSTORE PUSH1 0xFF PUSH1 0x8 PUSH1 0x40 DUP7 KECCAK256 ADD SLOAD AND PUSH1 0x4 DUP2 LT ISZERO PUSH2 0xA6C JUMPI PUSH1 0x1 EQ DUP1 ISZERO PUSH2 0x1260 JUMPI JUMPDEST PUSH2 0xAF9 SWAP1 PUSH2 0x1C34 JUMP JUMPDEST PUSH1 0x44 CALLDATALOAD DUP5 MSTORE PUSH1 0x7 PUSH1 0x20 MSTORE PUSH1 0x40 DUP5 KECCAK256 PUSH1 0x4 ADD SLOAD PUSH1 0x1 PUSH1 0x1 PUSH1 0xA0 SHL SUB SWAP1 DUP2 AND SWAP1 DUP4 AND SUB PUSH2 0x1222 JUMPI PUSH1 0x64 CALLDATALOAD DUP4 LT PUSH2 0x11EB JUMPI PUSH2 0xB35 PUSH1 0x64 CALLDATALOAD PUSH1 0x84 CALLDATALOAD PUSH2 0x1C80 JUMP JUMPDEST SWAP3 PUSH2 0xB42 PUSH1 0x5 SLOAD DUP6 PUSH2 0x1C80 JUMP JUMPDEST SWAP4 PUSH1 0x6 SLOAD SWAP5 DUP6 ISZERO PUSH2 0x11D7 JUMPI PUSH1 0x1 PUSH1 0x1 PUSH1 0xA0 SHL SUB DUP5 AND DUP8 MSTORE PUSH1 0x9 PUSH1 0x20 MSTORE PUSH1 0x40 DUP1 DUP9 KECCAK256 SWAP1 MLOAD SWAP2 SWAP1 PUSH2 0xBA0 SWAP1 PUSH1 0x2 SWAP1 PUSH2 0xB77 DUP6 PUSH2 0x192D JUMP JUMPDEST DUP1 SLOAD PUSH1 0x1 PUSH1 0x1 PUSH1 0xA0 SHL SUB SWAP1 DUP2 AND DUP7 MSTORE PUSH1 0x1 DUP3 ADD SLOAD AND PUSH1 0x20 DUP7 ADD MSTORE ADD SLOAD PUSH1 0x40 DUP5 ADD DUP2 SWAP1 MSTORE DUP5 PUSH2 0x1C80 JUMP JUMPDEST SWAP2 PUSH1 0x8 SLOAD SWAP4 DUP5 ISZERO PUSH2 0x11C3 JUMPI DUP10 DUP10 PUSH1 0x1 PUSH1 0x1 PUSH1 0xA0 SHL SUB DUP11 AND ISZERO PUSH2 0x10CF JUMPI POP POP PUSH1 0x40 MLOAD PUSH4 0x6EB1769F PUSH1 0xE1 SHL DUP2 MSTORE CALLER PUSH1 0x4 DUP3 ADD MSTORE ADDRESS PUSH1 0x24 DUP3 ADD MSTORE PUSH1 0x20 DUP2 PUSH1 0x44 DUP2 PUSH1 0x1 PUSH1 0x1 PUSH1 0xA0 SHL SUB DUP14 AND GAS STATICCALL SWAP1 DUP2 ISZERO PUSH2 0x10C4 JUMPI DUP12 SWAP2 PUSH2 0x108E JUMPI JUMPDEST POP PUSH2 0xC06 PUSH1 0x64 CALLDATALOAD PUSH1 0x84 CALLDATALOAD PUSH2 0x1C80 JUMP JUMPDEST GT PUSH2 0x1049 JUMPI PUSH1 0x20 PUSH2 0xC78 SWAP2 PUSH2 0xC44 DUP12 PUSH2 0xC3F DUP15 PUSH1 0x44 CALLDATALOAD DUP2 MSTORE PUSH1 0x7 DUP7 MSTORE PUSH1 0x3 PUSH1 0x40 PUSH1 0x1 DUP1 PUSH1 0xA0 SHL SUB SWAP3 KECCAK256 ADD SLOAD AND SWAP4 DUP11 DUP11 DIV SWAP3 DUP10 DIV SWAP1 PUSH2 0x1CA9 JUMP JUMPDEST PUSH2 0x1CA9 JUMP JUMPDEST PUSH1 0x40 MLOAD PUSH4 0x23B872DD PUSH1 0xE0 SHL DUP2 MSTORE CALLER PUSH1 0x4 DUP3 ADD MSTORE PUSH1 0x1 PUSH1 0x1 PUSH1 0xA0 SHL SUB SWAP1 SWAP3 AND PUSH1 0x24 DUP4 ADD MSTORE PUSH1 0x44 DUP3 ADD MSTORE SWAP2 DUP3 SWAP1 DUP2 SWAP1 PUSH1 0x64 DUP3 ADD SWAP1 JUMP JUMPDEST SUB DUP2 DUP14 PUSH1 0x1 PUSH1 0x1 PUSH1 0xA0 SHL SUB DUP14 AND GAS CALL DUP1 ISZERO PUSH2 0x101F JUMPI PUSH2 0x102A JUMPI JUMPDEST POP DUP8 DUP3 DIV PUSH2 0xFA9 JUMPI JUMPDEST DUP4 DUP4 DIV PUSH2 0xF28 JUMPI JUMPDEST POP JUMPDEST PUSH1 0x44 CALLDATALOAD DUP9 MSTORE PUSH1 0x7 PUSH1 0x20 MSTORE PUSH1 0xFF PUSH1 0x8 PUSH1 0x40 DUP11 KECCAK256 ADD SLOAD PUSH1 0x8 SHR AND SWAP4 PUSH1 0x2 DUP6 LT ISZERO PUSH2 0xA4F JUMPI DUP5 PUSH2 0xE63 JUMPI PUSH1 0x44 CALLDATALOAD DUP10 MSTORE PUSH1 0x7 PUSH1 0x20 MSTORE PUSH1 0x40 DUP10 KECCAK256 PUSH1 0x2 ADD SLOAD DUP10 SWAP2 SWAP1 PUSH1 0x1 PUSH1 0x1 PUSH1 0xA0 SHL SUB DUP9 AND EXTCODESIZE ISZERO PUSH2 0x460 JUMPI PUSH1 0x40 MLOAD PUSH4 0x21421707 PUSH1 0xE1 SHL DUP2 MSTORE ADDRESS PUSH1 0x4 DUP3 ADD MSTORE CALLER PUSH1 0x24 DUP3 ADD MSTORE PUSH1 0x44 DUP2 ADD SWAP2 SWAP1 SWAP2 MSTORE DUP3 DUP2 PUSH1 0x64 DUP2 DUP4 PUSH1 0x1 PUSH1 0x1 PUSH1 0xA0 SHL SUB DUP14 AND GAS CALL DUP1 ISZERO PUSH2 0x9C1 JUMPI PUSH2 0xE44 JUMPI JUMPDEST POP SWAP3 PUSH1 0x40 SWAP9 DUP10 SWAP4 PUSH2 0xDF8 SWAP8 SWAP7 SWAP4 PUSH1 0x7 PUSH2 0xD58 PUSH2 0xDED SWAP9 JUMPDEST PUSH1 0x1 PUSH1 0x3 SLOAD ADD PUSH1 0x3 SSTORE PUSH1 0x64 CALLDATALOAD SWAP1 PUSH2 0x1CA9 JUMP JUMPDEST SWAP13 DUP14 SWAP3 PUSH1 0x44 CALLDATALOAD DUP2 MSTORE DUP3 PUSH1 0x20 MSTORE KECCAK256 ADD SSTORE DUP11 ISZERO ISZERO PUSH1 0x0 EQ PUSH2 0xE34 JUMPI PUSH2 0xD83 DUP13 PUSH1 0x8 DUP2 SWAP8 DUP9 SWAP3 JUMPDEST KECCAK256 ADD PUSH2 0x1B92 JUMP JUMPDEST PUSH1 0x44 CALLDATALOAD DUP13 MSTORE PUSH1 0x7 PUSH1 0x20 MSTORE PUSH1 0x2 PUSH1 0x40 DUP14 KECCAK256 ADD SLOAD SWAP11 DUP13 PUSH1 0x3 PUSH1 0x40 PUSH1 0x1 DUP1 PUSH1 0xA0 SHL SUB SWAP3 KECCAK256 ADD SLOAD AND SWAP11 PUSH1 0x40 MLOAD SWAP12 DUP13 MSTORE CALLER PUSH1 0x20 DUP14 ADD MSTORE PUSH1 0x1 DUP1 PUSH1 0xA0 SHL SUB AND PUSH1 0x40 DUP13 ADD MSTORE PUSH1 0x84 CALLDATALOAD PUSH1 0x60 DUP13 ADD MSTORE PUSH1 0x64 CALLDATALOAD PUSH1 0x80 DUP13 ADD MSTORE PUSH1 0xA0 DUP12 ADD MSTORE DIV PUSH1 0xC0 DUP10 ADD MSTORE DIV PUSH1 0xE0 DUP8 ADD MSTORE PUSH2 0x100 DUP7 ADD SWAP1 PUSH2 0x1A86 JUMP JUMPDEST PUSH2 0x120 DUP5 ADD SWAP1 PUSH2 0x1A93 JUMP JUMPDEST PUSH1 0x1 PUSH1 0x1 PUSH1 0xA0 SHL SUB AND SWAP1 PUSH1 0x44 CALLDATALOAD SWAP1 PUSH32 0x2484D30EB15305F1A5D7FA13BB289117AA3DCEE51442CC78DF73FDC3323A465E SWAP1 PUSH2 0x140 SWAP1 LOG4 PUSH1 0x1 DUP2 SSTORE DUP1 RETURN JUMPDEST PUSH2 0xD83 DUP13 PUSH1 0x8 PUSH1 0x3 SWAP8 DUP9 SWAP3 PUSH2 0xD7C JUMP JUMPDEST SWAP2 PUSH2 0xE54 DUP2 SWAP6 SWAP3 SWAP5 SWAP8 SWAP7 SWAP4 PUSH2 0x195F JUMP JUMPDEST PUSH2 0x815 JUMPI SWAP3 SWAP1 SWAP4 SWAP5 SWAP2 CODESIZE PUSH2 0xD2F JUMP JUMPDEST PUSH1 0x44 CALLDATALOAD DUP10 MSTORE PUSH1 0x7 PUSH1 0x20 MSTORE PUSH1 0x40 DUP10 KECCAK256 PUSH1 0x2 ADD SLOAD SWAP5 SWAP9 SWAP8 SWAP4 SWAP5 SWAP3 SWAP4 SWAP3 PUSH1 0x1 PUSH1 0x1 PUSH1 0xA0 SHL SUB DUP8 AND EXTCODESIZE ISZERO PUSH2 0xF24 JUMPI DUP9 PUSH2 0xEB2 SWAP2 PUSH1 0x40 MLOAD DUP1 SWAP4 DUP2 SWAP3 PUSH4 0x79212195 PUSH1 0xE1 SHL DUP4 MSTORE PUSH1 0x64 CALLDATALOAD SWAP1 CALLER ADDRESS PUSH1 0x4 DUP7 ADD PUSH2 0x1BAA JUMP JUMPDEST SUB DUP2 DUP4 PUSH1 0x1 PUSH1 0x1 PUSH1 0xA0 SHL SUB DUP13 AND GAS CALL DUP1 ISZERO PUSH2 0xF19 JUMPI PUSH2 0xEE9 JUMPI JUMPDEST POP SWAP4 DUP8 SWAP9 SWAP4 PUSH2 0xDED SWAP4 PUSH1 0x40 SWAP10 SWAP4 DUP11 SWAP5 PUSH1 0x7 PUSH2 0xD58 PUSH2 0xDF8 SWAP11 PUSH2 0xD46 JUMP JUMPDEST SWAP4 PUSH2 0xDED SWAP4 PUSH1 0x40 SWAP10 SWAP4 PUSH2 0xDF8 SWAP8 SWAP4 PUSH1 0x7 DUP13 SWAP7 PUSH2 0xF08 PUSH2 0xD58 SWAP16 SWAP11 PUSH2 0x195F JUMP JUMPDEST SWAP13 POP POP SWAP4 SWAP8 POP SWAP4 POP SWAP4 POP SWAP4 SWAP9 PUSH2 0xECC JUMP JUMPDEST PUSH1 0x40 MLOAD RETURNDATASIZE DUP12 DUP3 RETURNDATACOPY RETURNDATASIZE SWAP1 REVERT JUMPDEST DUP9 DUP1 REVERT JUMPDEST PUSH1 0x20 SWAP1 DUP2 ADD MLOAD PUSH1 0x40 MLOAD PUSH4 0x23B872DD PUSH1 0xE0 SHL DUP2 MSTORE CALLER PUSH1 0x4 DUP3 ADD MSTORE PUSH1 0x1 PUSH1 0x1 PUSH1 0xA0 SHL SUB SWAP1 SWAP2 AND PUSH1 0x24 DUP3 ADD MSTORE DUP5 DUP5 DIV PUSH1 0x44 DUP3 ADD MSTORE SWAP1 DUP2 DUP1 PUSH1 0x64 DUP2 ADD SUB DUP2 DUP13 PUSH1 0x1 PUSH1 0x1 PUSH1 0xA0 SHL SUB DUP13 AND GAS CALL DUP1 ISZERO PUSH2 0xF19 JUMPI ISZERO PUSH2 0xCA3 JUMPI PUSH2 0xF9B SWAP1 PUSH1 0x20 RETURNDATASIZE PUSH1 0x20 GT PUSH2 0xFA2 JUMPI JUMPDEST PUSH2 0xF93 DUP2 DUP4 PUSH2 0x1990 JUMP JUMPDEST DUP2 ADD SWAP1 PUSH2 0x1CB6 JUMP JUMPDEST POP CODESIZE PUSH2 0xCA3 JUMP JUMPDEST POP RETURNDATASIZE PUSH2 0xF89 JUMP JUMPDEST PUSH1 0x4 DUP1 SLOAD PUSH1 0x40 MLOAD PUSH4 0x23B872DD PUSH1 0xE0 SHL DUP2 MSTORE CALLER SWAP3 DUP2 ADD SWAP3 SWAP1 SWAP3 MSTORE PUSH1 0x1 PUSH1 0x1 PUSH1 0xA0 SHL SUB AND PUSH1 0x24 DUP3 ADD MSTORE DUP9 DUP4 DIV PUSH1 0x44 DUP3 ADD MSTORE PUSH1 0x20 DUP2 DUP1 PUSH1 0x64 DUP2 ADD SUB DUP2 DUP14 PUSH1 0x1 PUSH1 0x1 PUSH1 0xA0 SHL SUB DUP14 AND GAS CALL DUP1 ISZERO PUSH2 0x101F JUMPI PUSH2 0x1000 JUMPI JUMPDEST POP PUSH2 0xC9B JUMP JUMPDEST PUSH2 0x1018 SWAP1 PUSH1 0x20 RETURNDATASIZE PUSH1 0x20 GT PUSH2 0xFA2 JUMPI PUSH2 0xF93 DUP2 DUP4 PUSH2 0x1990 JUMP JUMPDEST POP CODESIZE PUSH2 0xFFA JUMP JUMPDEST PUSH1 0x40 MLOAD RETURNDATASIZE DUP13 DUP3 RETURNDATACOPY RETURNDATASIZE SWAP1 REVERT JUMPDEST PUSH2 0x1042 SWAP1 PUSH1 0x20 RETURNDATASIZE PUSH1 0x20 GT PUSH2 0xFA2 JUMPI PUSH2 0xF93 DUP2 DUP4 PUSH2 0x1990 JUMP JUMPDEST POP CODESIZE PUSH2 0xC92 JUMP JUMPDEST PUSH1 0x40 MLOAD PUSH3 0x461BCD PUSH1 0xE5 SHL DUP2 MSTORE PUSH1 0x20 PUSH1 0x4 DUP3 ADD MSTORE PUSH1 0x17 PUSH1 0x24 DUP3 ADD MSTORE PUSH32 0x546F6B656E20616C6C6F77616E636520746F6F206C6F77000000000000000000 PUSH1 0x44 DUP3 ADD MSTORE PUSH1 0x64 SWAP1 REVERT JUMPDEST SWAP1 POP PUSH1 0x20 DUP2 RETURNDATASIZE PUSH1 0x20 GT PUSH2 0x10BC JUMPI JUMPDEST DUP2 PUSH2 0x10A9 PUSH1 0x20 SWAP4 DUP4 PUSH2 0x1990 JUMP JUMPDEST DUP2 ADD SUB SLT PUSH2 0x10B8 JUMPI MLOAD CODESIZE PUSH2 0xBF7 JUMP JUMPDEST DUP11 DUP1 REVERT JUMPDEST RETURNDATASIZE SWAP2 POP PUSH2 0x109C JUMP JUMPDEST PUSH1 0x40 MLOAD RETURNDATASIZE DUP14 DUP3 RETURNDATACOPY RETURNDATASIZE SWAP1 REVERT JUMPDEST DUP2 DUP1 DUP1 SWAP6 SWAP5 PUSH2 0x1103 DUP3 SWAP5 PUSH1 0x44 CALLDATALOAD DUP5 MSTORE PUSH1 0x7 PUSH1 0x20 MSTORE PUSH2 0xC3F PUSH1 0x1 DUP1 PUSH1 0xA0 SHL SUB PUSH1 0x3 PUSH1 0x40 DUP8 KECCAK256 ADD SLOAD AND SWAP4 DUP14 DUP14 DIV SWAP3 DUP13 DIV SWAP1 PUSH2 0x1CA9 JUMP JUMPDEST SWAP1 DUP3 DUP3 ISZERO PUSH2 0x11BA JUMPI JUMPDEST CALL ISZERO PUSH2 0x11A3 JUMPI DUP2 DUP10 DUP5 DIV ISZERO DUP1 ISZERO PUSH2 0x1177 JUMPI JUMPDEST POP POP DUP5 DUP5 DIV ISZERO DUP1 ISZERO PUSH2 0x1133 JUMPI JUMPDEST POP POP POP PUSH2 0xCA5 JUMP JUMPDEST PUSH1 0x20 SWAP1 SWAP2 ADD MLOAD DUP3 SWAP2 DUP3 SWAP2 DUP3 SWAP2 DUP3 SWAP2 PUSH1 0x1 PUSH1 0x1 PUSH1 0xA0 SHL SUB AND SWAP1 PUSH2 0x116D JUMPI JUMPDEST DUP9 DUP9 DIV SWAP2 CALL ISZERO PUSH2 0x1162 JUMPI DUP8 CODESIZE DUP1 PUSH2 0x112B JUMP JUMPDEST PUSH1 0x40 MLOAD RETURNDATASIZE DUP10 DUP3 RETURNDATACOPY RETURNDATASIZE SWAP1 REVERT JUMPDEST PUSH2 0x8FC SWAP2 POP PUSH2 0x1150 JUMP JUMPDEST PUSH1 0x4 SLOAD DUP3 SWAP2 DUP3 SWAP2 DUP3 SWAP2 DUP3 SWAP2 PUSH1 0x1 PUSH1 0x1 PUSH1 0xA0 SHL SUB AND SWAP1 DUP16 SWAP1 PUSH2 0x11B0 JUMPI JUMPDEST DUP10 DIV SWAP2 CALL ISZERO PUSH2 0x11A3 JUMPI DUP2 CODESIZE PUSH2 0x111E JUMP JUMPDEST POP PUSH1 0x40 MLOAD SWAP1 RETURNDATASIZE SWAP1 DUP3 RETURNDATACOPY RETURNDATASIZE SWAP1 REVERT JUMPDEST PUSH2 0x8FC SWAP3 POP PUSH2 0x1193 JUMP JUMPDEST POP PUSH2 0x8FC PUSH2 0x110C JUMP JUMPDEST PUSH4 0x4E487B71 PUSH1 0xE0 SHL DUP11 MSTORE PUSH1 0x12 PUSH1 0x4 MSTORE PUSH1 0x24 DUP11 REVERT JUMPDEST PUSH4 0x4E487B71 PUSH1 0xE0 SHL DUP8 MSTORE PUSH1 0x12 PUSH1 0x4 MSTORE PUSH1 0x24 DUP8 REVERT JUMPDEST PUSH1 0x40 MLOAD PUSH3 0x461BCD PUSH1 0xE5 SHL DUP2 MSTORE PUSH1 0x20 PUSH1 0x4 DUP3 ADD MSTORE PUSH1 0xF PUSH1 0x24 DUP3 ADD MSTORE PUSH15 0xD8CACCE840DCDEE840CADCDEEACED PUSH1 0x8B SHL PUSH1 0x44 DUP3 ADD MSTORE PUSH1 0x64 SWAP1 REVERT JUMPDEST PUSH1 0x40 MLOAD PUSH3 0x461BCD PUSH1 0xE5 SHL DUP2 MSTORE PUSH1 0x20 PUSH1 0x4 DUP3 ADD MSTORE PUSH1 0x16 PUSH1 0x24 DUP3 ADD MSTORE PUSH22 0x26B7B732BCA6B4B73A20B2323932B9B99032B93937B9 PUSH1 0x51 SHL PUSH1 0x44 DUP3 ADD MSTORE PUSH1 0x64 SWAP1 REVERT JUMPDEST POP PUSH1 0x44 CALLDATALOAD DUP5 MSTORE PUSH1 0x7 PUSH1 0x20 MSTORE PUSH1 0xFF PUSH1 0x8 PUSH1 0x40 DUP7 KECCAK256 ADD SLOAD AND PUSH1 0x4 DUP2 LT ISZERO PUSH2 0xA6C JUMPI ISZERO PUSH2 0xAF0 JUMP JUMPDEST PUSH1 0x84 PUSH1 0x40 MLOAD PUSH3 0x461BCD PUSH1 0xE5 SHL DUP2 MSTORE PUSH1 0x20 PUSH1 0x4 DUP3 ADD MSTORE PUSH1 0x40 PUSH1 0x24 DUP3 ADD MSTORE PUSH32 0x506C65617365207375626D6974207468652061736B696E672070726963652069 PUSH1 0x44 DUP3 ADD MSTORE PUSH32 0x6E206F7264657220746F20636F6D706C65746520746865207075726368617365 PUSH1 0x64 DUP3 ADD MSTORE REVERT JUMPDEST POP CALLVALUE PUSH2 0x1B9 JUMPI PUSH1 0x60 CALLDATASIZE PUSH1 0x3 NOT ADD SLT PUSH2 0x1B9 JUMPI PUSH2 0x1309 PUSH2 0x18FC JUMP JUMPDEST PUSH2 0x1311 PUSH2 0x1917 JUMP JUMPDEST PUSH1 0x40 MLOAD PUSH4 0x8DA5CB5B PUSH1 0xE0 SHL DUP2 MSTORE PUSH1 0x1 PUSH1 0x1 PUSH1 0xA0 SHL SUB SWAP3 PUSH1 0x44 CALLDATALOAD SWAP3 SWAP1 DUP5 AND SWAP2 PUSH1 0x20 SWAP2 SWAP1 DUP3 DUP2 PUSH1 0x4 DUP2 DUP8 GAS STATICCALL SWAP1 DUP2 ISZERO PUSH2 0x1162 JUMPI DUP8 SWAP2 PUSH2 0x1412 JUMPI JUMPDEST POP DUP6 CALLER SWAP2 AND SUB PUSH2 0x13E1 JUMPI SWAP1 PUSH32 0x8BAF7874A723D5428F766589E41A388A0AEEE0700EA5AEB3E1FFD0B9832293DF SWAP2 DUP4 DUP8 MSTORE PUSH1 0x9 DUP3 MSTORE PUSH1 0x2 PUSH1 0x40 MLOAD SWAP2 PUSH2 0x138C DUP4 PUSH2 0x192D JUMP JUMPDEST DUP4 DUP4 ADD DUP9 PUSH1 0x40 DUP6 ADD SWAP3 CALLER DUP7 MSTORE DUP10 DUP5 MSTORE AND SWAP9 DUP10 DUP3 MSTORE DUP8 DUP12 MSTORE PUSH1 0x9 DUP7 MSTORE DUP1 PUSH1 0x40 DUP13 KECCAK256 SWAP6 MLOAD AND SWAP1 PUSH1 0x1 PUSH1 0x1 PUSH1 0x60 SHL SUB PUSH1 0xA0 SHL SWAP2 DUP3 DUP8 SLOAD AND OR DUP7 SSTORE PUSH1 0x1 DUP7 ADD SWAP3 MLOAD AND SWAP1 DUP3 SLOAD AND OR SWAP1 SSTORE MLOAD SWAP2 ADD SSTORE PUSH1 0x40 MLOAD SWAP4 DUP5 MSTORE CALLER SWAP4 LOG4 DUP1 RETURN JUMPDEST PUSH1 0x40 MLOAD PUSH3 0x461BCD PUSH1 0xE5 SHL DUP2 MSTORE PUSH1 0x4 DUP2 ADD DUP4 SWAP1 MSTORE PUSH1 0x9 PUSH1 0x24 DUP3 ADD MSTORE PUSH9 0x2737BA1037BBB732B9 PUSH1 0xB9 SHL PUSH1 0x44 DUP3 ADD MSTORE PUSH1 0x64 SWAP1 REVERT JUMPDEST SWAP1 POP DUP3 DUP2 DUP2 RETURNDATASIZE DUP4 GT PUSH2 0x1445 JUMPI JUMPDEST PUSH2 0x1429 DUP2 DUP4 PUSH2 0x1990 JUMP JUMPDEST DUP2 ADD SUB SLT PUSH2 0x1441 JUMPI MLOAD DUP6 DUP2 AND DUP2 SUB PUSH2 0x1441 JUMPI CODESIZE PUSH2 0x1349 JUMP JUMPDEST DUP7 DUP1 REVERT JUMPDEST POP RETURNDATASIZE PUSH2 0x141F JUMP JUMPDEST POP CALLVALUE PUSH2 0x1B9 JUMPI DUP1 PUSH1 0x3 NOT CALLDATASIZE ADD SLT PUSH2 0x1B9 JUMPI PUSH1 0x1 SLOAD PUSH1 0x40 MLOAD PUSH1 0x1 PUSH1 0x1 PUSH1 0xA0 SHL SUB SWAP1 SWAP2 AND DUP2 MSTORE PUSH1 0x20 SWAP1 RETURN JUMPDEST POP CALLVALUE PUSH2 0x1B9 JUMPI DUP1 PUSH1 0x3 NOT CALLDATASIZE ADD SLT PUSH2 0x1B9 JUMPI PUSH1 0x20 PUSH1 0x3 SLOAD PUSH1 0x40 MLOAD SWAP1 DUP2 MSTORE RETURN JUMPDEST POP CALLVALUE PUSH2 0x1B9 JUMPI PUSH1 0x20 CALLDATASIZE PUSH1 0x3 NOT ADD SLT PUSH2 0x1B9 JUMPI PUSH2 0x14AD PUSH2 0x18FC JUMP JUMPDEST PUSH2 0x14B5 PUSH2 0x1AA0 JUMP JUMPDEST PUSH1 0x1 DUP1 PUSH1 0xA0 SHL SUB AND PUSH1 0x1 PUSH1 0x1 PUSH1 0x60 SHL SUB PUSH1 0xA0 SHL PUSH1 0x4 SLOAD AND OR PUSH1 0x4 SSTORE DUP1 RETURN JUMPDEST POP CALLVALUE PUSH2 0x1B9 JUMPI DUP1 PUSH1 0x3 NOT CALLDATASIZE ADD SLT PUSH2 0x1B9 JUMPI PUSH2 0x14EC PUSH2 0x1AA0 JUMP JUMPDEST PUSH1 0x1 DUP1 SLOAD PUSH1 0x1 PUSH1 0x1 PUSH1 0xA0 SHL SUB NOT DUP2 AND SWAP1 SWAP2 SSTORE DUP2 SWAP1 PUSH1 0x1 PUSH1 0x1 PUSH1 0xA0 SHL SUB AND PUSH32 0x8BE0079C531659141344CD1FD0A4F28419497F9722A3DAAFE3B4186F6B6457E0 DUP3 DUP1 LOG3 DUP1 RETURN JUMPDEST POP CALLVALUE PUSH2 0x1B9 JUMPI PUSH1 0x20 CALLDATASIZE PUSH1 0x3 NOT ADD SLT PUSH2 0x1B9 JUMPI PUSH2 0x154A PUSH2 0x1AA0 JUMP JUMPDEST PUSH1 0x4 CALLDATALOAD PUSH1 0x8 SSTORE DUP1 RETURN JUMPDEST POP CALLVALUE PUSH2 0x1B9 JUMPI PUSH1 0x20 CALLDATASIZE PUSH1 0x3 NOT ADD SLT PUSH2 0x1B9 JUMPI PUSH1 0x1 PUSH1 0x1 PUSH1 0xA0 SHL SUB SWAP1 PUSH1 0x40 SWAP1 DUP3 PUSH2 0x157A PUSH2 0x18FC JUMP JUMPDEST AND DUP2 MSTORE PUSH1 0x9 PUSH1 0x20 MSTORE KECCAK256 SWAP1 PUSH2 0x15C0 PUSH1 0x2 DUP3 DUP5 SLOAD AND SWAP3 PUSH1 0x1 DUP6 ADD SLOAD AND SWAP4 ADD SLOAD PUSH1 0x40 MLOAD SWAP4 DUP5 SWAP4 DUP5 PUSH1 0x40 SWAP2 SWAP5 SWAP4 SWAP3 SWAP5 PUSH1 0x60 DUP3 ADD SWAP6 PUSH1 0x1 DUP1 PUSH1 0xA0 SHL SUB DUP1 SWAP3 AND DUP4 MSTORE AND PUSH1 0x20 DUP3 ADD MSTORE ADD MSTORE JUMP JUMPDEST SUB SWAP1 RETURN JUMPDEST POP CALLVALUE PUSH2 0x1B9 JUMPI PUSH2 0x15D3 CALLDATASIZE PUSH2 0x1A09 JUMP JUMPDEST SWAP1 PUSH2 0x15DC PUSH2 0x1AA0 JUMP JUMPDEST PUSH1 0x5 SSTORE PUSH1 0x6 SSTORE DUP1 RETURN JUMPDEST POP CALLVALUE PUSH2 0x1B9 JUMPI DUP1 PUSH1 0x3 NOT CALLDATASIZE ADD SLT PUSH2 0x1B9 JUMPI PUSH1 0x1 SLOAD PUSH1 0x1 PUSH1 0x1 PUSH1 0xA0 SHL SUB AND PUSH2 0x1649 JUMPI PUSH2 0x160F CALLER PUSH2 0x1AF8 JUMP JUMPDEST PUSH20 0xCD9B5D2FB4A13E95C39BD6D76A13CF5862AD35C9 PUSH1 0x1 PUSH1 0x1 PUSH1 0x60 SHL SUB PUSH1 0xA0 SHL PUSH1 0x4 SLOAD AND OR PUSH1 0x4 SSTORE PUSH1 0x32 PUSH1 0x5 SSTORE PUSH2 0x2710 DUP1 PUSH1 0x6 SSTORE PUSH1 0x8 SSTORE DUP1 RETURN JUMPDEST PUSH1 0x40 MLOAD PUSH3 0x461BCD PUSH1 0xE5 SHL DUP2 MSTORE PUSH1 0x20 PUSH1 0x4 DUP3 ADD MSTORE PUSH1 0x12 PUSH1 0x24 DUP3 ADD MSTORE PUSH18 0x105B1C9958591E481A5B9A5D185B1A5E9959 PUSH1 0x72 SHL PUSH1 0x44 DUP3 ADD MSTORE PUSH1 0x64 SWAP1 REVERT JUMPDEST POP CALLVALUE PUSH2 0x1B9 JUMPI DUP1 PUSH1 0x3 NOT CALLDATASIZE ADD SLT PUSH2 0x1B9 JUMPI PUSH1 0x4 SLOAD PUSH1 0x40 MLOAD PUSH1 0x1 PUSH1 0x1 PUSH1 0xA0 SHL SUB SWAP1 SWAP2 AND DUP2 MSTORE PUSH1 0x20 SWAP1 RETURN JUMPDEST POP CALLVALUE PUSH2 0x1B9 JUMPI DUP1 PUSH1 0x3 NOT CALLDATASIZE ADD SLT PUSH2 0x1B9 JUMPI PUSH1 0x20 PUSH1 0x2 SLOAD PUSH1 0x40 MLOAD SWAP1 DUP2 MSTORE RETURN JUMPDEST POP CALLVALUE PUSH2 0x1B9 JUMPI DUP1 PUSH1 0x3 NOT CALLDATASIZE ADD SLT PUSH2 0x1B9 JUMPI PUSH1 0x20 PUSH1 0x8 SLOAD PUSH1 0x40 MLOAD SWAP1 DUP2 MSTORE RETURN JUMPDEST POP CALLVALUE PUSH2 0x1B9 JUMPI PUSH2 0x16F7 CALLDATASIZE PUSH2 0x1A09 JUMP JUMPDEST DUP1 ISZERO PUSH2 0x17ED JUMPI DUP2 DUP4 MSTORE PUSH1 0x20 PUSH1 0x7 DUP2 MSTORE PUSH2 0x1720 PUSH1 0x1 DUP1 PUSH1 0xA0 SHL SUB PUSH1 0x3 PUSH1 0x40 DUP8 KECCAK256 ADD SLOAD AND CALLER EQ PUSH2 0x1B41 JUMP JUMPDEST DUP3 DUP5 MSTORE PUSH1 0x7 DUP2 MSTORE PUSH1 0xFF PUSH1 0x8 PUSH1 0x40 DUP7 KECCAK256 ADD SLOAD AND PUSH1 0x4 DUP2 LT ISZERO PUSH2 0xA6C JUMPI PUSH1 0x1 EQ DUP1 ISZERO PUSH2 0x17CB JUMPI JUMPDEST ISZERO PUSH2 0x1788 JUMPI PUSH32 0x44E57822EF0F4678CD7EDCAB9E87F873C2DE642E2C919997CA0BA679044A4A8C SWAP1 DUP4 DUP6 MSTORE PUSH1 0x7 DUP2 MSTORE DUP3 PUSH1 0x5 PUSH1 0x40 DUP8 KECCAK256 ADD SSTORE PUSH1 0x40 MLOAD SWAP3 DUP4 MSTORE CALLER SWAP3 LOG3 DUP1 RETURN JUMPDEST PUSH1 0x64 SWAP1 PUSH1 0x40 MLOAD SWAP1 PUSH3 0x461BCD PUSH1 0xE5 SHL DUP3 MSTORE DUP1 PUSH1 0x4 DUP4 ADD MSTORE PUSH1 0x24 DUP3 ADD MSTORE PUSH32 0x54686973206F726465722068617320616C726564792066696E6E69736865642E PUSH1 0x44 DUP3 ADD MSTORE REVERT JUMPDEST POP DUP3 DUP5 MSTORE PUSH1 0x7 DUP2 MSTORE PUSH1 0xFF PUSH1 0x8 PUSH1 0x40 DUP7 KECCAK256 ADD SLOAD AND PUSH1 0x4 DUP2 LT ISZERO PUSH2 0xA6C JUMPI ISZERO PUSH2 0x1745 JUMP JUMPDEST PUSH1 0x40 MLOAD PUSH3 0x461BCD PUSH1 0xE5 SHL DUP2 MSTORE PUSH1 0x20 PUSH1 0x4 DUP3 ADD MSTORE PUSH1 0x1A PUSH1 0x24 DUP3 ADD MSTORE PUSH32 0x5072696365206D757374206D6F7265207468616E207A65726F2E000000000000 PUSH1 0x44 DUP3 ADD MSTORE PUSH1 0x64 SWAP1 REVERT JUMPDEST POP CALLVALUE PUSH2 0x1B9 JUMPI DUP1 PUSH1 0x3 NOT CALLDATASIZE ADD SLT PUSH2 0x1B9 JUMPI PUSH1 0x20 PUSH1 0x6 SLOAD PUSH1 0x40 MLOAD SWAP1 DUP2 MSTORE RETURN JUMPDEST POP CALLVALUE PUSH2 0x1B9 JUMPI PUSH1 0x80 CALLDATASIZE PUSH1 0x3 NOT ADD SLT PUSH2 0x1B9 JUMPI PUSH2 0x186A PUSH2 0x18FC JUMP JUMPDEST POP PUSH2 0x1873 PUSH2 0x1917 JUMP JUMPDEST POP PUSH1 0x64 CALLDATALOAD PUSH8 0xFFFFFFFFFFFFFFFF DUP2 GT PUSH2 0x213 JUMPI PUSH2 0x1894 SWAP1 CALLDATASIZE SWAP1 PUSH1 0x4 ADD PUSH2 0x19B2 JUMP JUMPDEST POP PUSH1 0x40 MLOAD PUSH4 0xA85BD01 PUSH1 0xE1 SHL DUP2 MSTORE PUSH1 0x20 SWAP1 RETURN JUMPDEST SWAP1 POP CALLVALUE PUSH2 0x213 JUMPI PUSH1 0x20 CALLDATASIZE PUSH1 0x3 NOT ADD SLT PUSH2 0x213 JUMPI PUSH1 0x4 CALLDATALOAD PUSH4 0xFFFFFFFF PUSH1 0xE0 SHL DUP2 AND DUP1 SWAP2 SUB PUSH2 0x460 JUMPI PUSH1 0x20 SWAP3 POP PUSH4 0x2711897 PUSH1 0xE5 SHL DUP2 EQ SWAP1 DUP2 ISZERO PUSH2 0x18EB JUMPI JUMPDEST POP ISZERO ISZERO DUP2 MSTORE RETURN JUMPDEST PUSH4 0x1FFC9A7 PUSH1 0xE0 SHL EQ SWAP1 POP CODESIZE PUSH2 0x18E4 JUMP JUMPDEST PUSH1 0x4 CALLDATALOAD SWAP1 PUSH1 0x1 PUSH1 0x1 PUSH1 0xA0 SHL SUB DUP3 AND DUP3 SUB PUSH2 0x1912 JUMPI JUMP JUMPDEST PUSH1 0x0 DUP1 REVERT JUMPDEST PUSH1 0x24 CALLDATALOAD SWAP1 PUSH1 0x1 PUSH1 0x1 PUSH1 0xA0 SHL SUB DUP3 AND DUP3 SUB PUSH2 0x1912 JUMPI JUMP JUMPDEST PUSH1 0x60 DUP2 ADD SWAP1 DUP2 LT PUSH8 0xFFFFFFFFFFFFFFFF DUP3 GT OR PUSH2 0x1949 JUMPI PUSH1 0x40 MSTORE JUMP JUMPDEST PUSH4 0x4E487B71 PUSH1 0xE0 SHL PUSH1 0x0 MSTORE PUSH1 0x41 PUSH1 0x4 MSTORE PUSH1 0x24 PUSH1 0x0 REVERT JUMPDEST PUSH8 0xFFFFFFFFFFFFFFFF DUP2 GT PUSH2 0x1949 JUMPI PUSH1 0x40 MSTORE JUMP JUMPDEST PUSH2 0x140 DUP2 ADD SWAP1 DUP2 LT PUSH8 0xFFFFFFFFFFFFFFFF DUP3 GT OR PUSH2 0x1949 JUMPI PUSH1 0x40 MSTORE JUMP JUMPDEST SWAP1 PUSH1 0x1F DUP1 NOT SWAP2 ADD AND DUP2 ADD SWAP1 DUP2 LT PUSH8 0xFFFFFFFFFFFFFFFF DUP3 GT OR PUSH2 0x1949 JUMPI PUSH1 0x40 MSTORE JUMP JUMPDEST DUP2 PUSH1 0x1F DUP3 ADD SLT ISZERO PUSH2 0x1912 JUMPI DUP1 CALLDATALOAD SWAP1 PUSH8 0xFFFFFFFFFFFFFFFF DUP3 GT PUSH2 0x1949 JUMPI PUSH1 0x40 MLOAD SWAP3 PUSH2 0x19E7 PUSH1 0x1F DUP5 ADD PUSH1 0x1F NOT AND PUSH1 0x20 ADD DUP6 PUSH2 0x1990 JUMP JUMPDEST DUP3 DUP5 MSTORE PUSH1 0x20 DUP4 DUP4 ADD ADD GT PUSH2 0x1912 JUMPI DUP2 PUSH1 0x0 SWAP3 PUSH1 0x20 DUP1 SWAP4 ADD DUP4 DUP7 ADD CALLDATACOPY DUP4 ADD ADD MSTORE SWAP1 JUMP JUMPDEST PUSH1 0x40 SWAP1 PUSH1 0x3 NOT ADD SLT PUSH2 0x1912 JUMPI PUSH1 0x4 CALLDATALOAD SWAP1 PUSH1 0x24 CALLDATALOAD SWAP1 JUMP JUMPDEST SWAP1 DUP1 PUSH1 0x1F DUP4 ADD SLT ISZERO PUSH2 0x1912 JUMPI DUP2 CALLDATALOAD SWAP1 PUSH8 0xFFFFFFFFFFFFFFFF DUP3 GT PUSH2 0x1949 JUMPI DUP2 PUSH1 0x5 SHL PUSH1 0x40 MLOAD SWAP4 PUSH1 0x20 SWAP4 PUSH2 0x1A54 DUP6 DUP5 ADD DUP8 PUSH2 0x1990 JUMP JUMPDEST DUP6 MSTORE DUP4 DUP1 DUP7 ADD SWAP3 DUP3 ADD ADD SWAP3 DUP4 GT PUSH2 0x1912 JUMPI DUP4 ADD SWAP1 JUMPDEST DUP3 DUP3 LT PUSH2 0x1A77 JUMPI POP POP POP POP SWAP1 JUMP JUMPDEST DUP2 CALLDATALOAD DUP2 MSTORE SWAP1 DUP4 ADD SWAP1 DUP4 ADD PUSH2 0x1A69 JUMP JUMPDEST SWAP1 PUSH1 0x4 DUP3 LT ISZERO PUSH2 0x3A2 JUMPI MSTORE JUMP JUMPDEST SWAP1 PUSH1 0x2 DUP3 LT ISZERO PUSH2 0x3A2 JUMPI MSTORE JUMP JUMPDEST PUSH1 0x1 SLOAD PUSH1 0x1 PUSH1 0x1 PUSH1 0xA0 SHL SUB AND CALLER SUB PUSH2 0x1AB4 JUMPI JUMP JUMPDEST PUSH1 0x64 PUSH1 0x40 MLOAD PUSH3 0x461BCD PUSH1 0xE5 SHL DUP2 MSTORE PUSH1 0x20 PUSH1 0x4 DUP3 ADD MSTORE PUSH1 0x20 PUSH1 0x24 DUP3 ADD MSTORE PUSH32 0x4F776E61626C653A2063616C6C6572206973206E6F7420746865206F776E6572 PUSH1 0x44 DUP3 ADD MSTORE REVERT JUMPDEST PUSH1 0x1 DUP1 SLOAD PUSH1 0x1 PUSH1 0x1 PUSH1 0xA0 SHL SUB SWAP3 DUP4 AND PUSH1 0x1 PUSH1 0x1 PUSH1 0xA0 SHL SUB NOT DUP3 AND DUP2 OR SWAP1 SWAP3 SSTORE SWAP1 SWAP2 AND PUSH32 0x8BE0079C531659141344CD1FD0A4F28419497F9722A3DAAFE3B4186F6B6457E0 PUSH1 0x0 DUP1 LOG3 JUMP JUMPDEST ISZERO PUSH2 0x1B48 JUMPI JUMP JUMPDEST PUSH1 0x40 MLOAD PUSH3 0x461BCD PUSH1 0xE5 SHL DUP2 MSTORE PUSH1 0x20 PUSH1 0x4 DUP3 ADD MSTORE PUSH1 0x16 PUSH1 0x24 DUP3 ADD MSTORE PUSH22 0x2237903737BA103430BB32903832B936B4B9B9B4B7B7 PUSH1 0x51 SHL PUSH1 0x44 DUP3 ADD MSTORE PUSH1 0x64 SWAP1 REVERT JUMPDEST PUSH1 0x2 DUP3 LT ISZERO PUSH2 0x3A2 JUMPI MSTORE JUMP JUMPDEST SWAP1 PUSH1 0x4 DUP2 LT ISZERO PUSH2 0x3A2 JUMPI PUSH1 0xFF DUP1 NOT DUP4 SLOAD AND SWAP2 AND OR SWAP1 SSTORE JUMP JUMPDEST SWAP3 SWAP1 PUSH1 0xC0 SWAP5 SWAP3 PUSH1 0x1 DUP1 PUSH1 0xA0 SHL SUB DUP1 SWAP3 AND DUP6 MSTORE AND PUSH1 0x20 DUP5 ADD MSTORE PUSH1 0x40 DUP4 ADD MSTORE PUSH1 0x60 DUP3 ADD MSTORE PUSH1 0xA0 PUSH1 0x80 DUP3 ADD MSTORE PUSH1 0x0 PUSH1 0xA0 DUP3 ADD MSTORE ADD SWAP1 JUMP JUMPDEST PUSH1 0x2 PUSH1 0x0 SLOAD EQ PUSH2 0x1BEF JUMPI PUSH1 0x2 PUSH1 0x0 SSTORE JUMP JUMPDEST PUSH1 0x40 MLOAD PUSH3 0x461BCD PUSH1 0xE5 SHL DUP2 MSTORE PUSH1 0x20 PUSH1 0x4 DUP3 ADD MSTORE PUSH1 0x1F PUSH1 0x24 DUP3 ADD MSTORE PUSH32 0x5265656E7472616E637947756172643A207265656E7472616E742063616C6C00 PUSH1 0x44 DUP3 ADD MSTORE PUSH1 0x64 SWAP1 REVERT JUMPDEST ISZERO PUSH2 0x1C3B JUMPI JUMP JUMPDEST PUSH1 0x40 MLOAD PUSH3 0x461BCD PUSH1 0xE5 SHL DUP2 MSTORE PUSH1 0x20 PUSH1 0x4 DUP3 ADD MSTORE PUSH1 0x1E PUSH1 0x24 DUP3 ADD MSTORE PUSH32 0x546869732053616C652068617320616C726564792066696E6E69736865640000 PUSH1 0x44 DUP3 ADD MSTORE PUSH1 0x64 SWAP1 REVERT JUMPDEST DUP2 DUP2 MUL SWAP3 SWAP2 DUP2 ISZERO SWAP2 DUP5 DIV EQ OR ISZERO PUSH2 0x1C93 JUMPI JUMP JUMPDEST PUSH4 0x4E487B71 PUSH1 0xE0 SHL PUSH1 0x0 MSTORE PUSH1 0x11 PUSH1 0x4 MSTORE PUSH1 0x24 PUSH1 0x0 REVERT JUMPDEST SWAP2 SWAP1 DUP3 SUB SWAP2 DUP3 GT PUSH2 0x1C93 JUMPI JUMP JUMPDEST SWAP1 DUP2 PUSH1 0x20 SWAP2 SUB SLT PUSH2 0x1912 JUMPI MLOAD DUP1 ISZERO ISZERO DUP2 SUB PUSH2 0x1912 JUMPI SWAP1 JUMP INVALID LOG2 PUSH5 0x6970667358 0x22 SLT KECCAK256 PUSH3 0xC1FD76 SAR JUMPDEST 0xB4 0xDC 0xB5 0x23 PUSH28 0x8EC5DF739C780395DAE725D7CCC09E1867B9BA953864736F6C634300 ADDMOD GT STOP CALLER "
		},
		"gasEstimates": {
			"creation": {
				"codeDepositCost": "1485600",
				"executionCost": "141502",
				"totalCost": "1627102"
			},
			"external": {
				"_itemIds()": "2376",
				"_itemsSold()": "2552",
				"cancelMarketItem(uint256)": "infinite",
				"constructor1()": "118794",
				"createMarketItem(address,address,uint256,uint256,uint256,uint8)": "infinite",
				"createMarketSale(address,address,uint256,uint256,uint256)": "infinite",
				"feeAddress()": "2422",
				"feeDenominator()": "2310",
				"feeNumerator()": "2706",
				"getItemsInfo(uint256)": "infinite",
				"modifyPrice(uint256,uint256)": "30938",
				"onERC1155BatchReceived(address,address,uint256[],uint256[],bytes)": "infinite",
				"onERC1155Received(address,address,uint256,uint256,bytes)": "infinite",
				"onERC721Received(address,address,uint256,bytes)": "infinite",
				"owner()": "2598",
				"renounceOwnership()": "28316",
				"royaltyInfos(address)": "6962",
				"royaltyRateDenominator()": "2354",
				"setFee(uint256,uint256)": "46735",
				"setFeeAddress(address)": "26893",
				"setRoyaltyRate(address,address,uint256)": "infinite",
				"setRoyaltyRateDenominator(uint256)": "24634",
				"supportsInterface(bytes4)": "280",
				"transferOwnership(address)": "28727"
			}
		},
		"methodIdentifiers": {
			"_itemIds()": "34a7f193",
			"_itemsSold()": "87506a0d",
			"cancelMarketItem(uint256)": "a6e22b02",
			"constructor1()": "473be604",
			"createMarketItem(address,address,uint256,uint256,uint256,uint8)": "a759c214",
			"createMarketSale(address,address,uint256,uint256,uint256)": "a69c330f",
			"feeAddress()": "41275358",
			"feeDenominator()": "180b0d7e",
			"feeNumerator()": "e86dea4a",
			"getItemsInfo(uint256)": "ebcc8820",
			"modifyPrice(uint256,uint256)": "1b467687",
			"onERC1155BatchReceived(address,address,uint256[],uint256[],bytes)": "bc197c81",
			"onERC1155Received(address,address,uint256,uint256,bytes)": "f23a6e61",
			"onERC721Received(address,address,uint256,bytes)": "150b7a02",
			"owner()": "8da5cb5b",
			"renounceOwnership()": "715018a6",
			"royaltyInfos(address)": "6ec150db",
			"royaltyRateDenominator()": "1ddb7ff4",
			"setFee(uint256,uint256)": "52f7c988",
			"setFeeAddress(address)": "8705fcd4",
			"setRoyaltyRate(address,address,uint256)": "9f3782b2",
			"setRoyaltyRateDenominator(uint256)": "6f56a55a",
			"supportsInterface(bytes4)": "01ffc9a7",
			"transferOwnership(address)": "f2fde38b"
		}
	},
	"abi": [
		{
			"inputs": [],
			"stateMutability": "nonpayable",
			"type": "constructor"
		},
		{
			"anonymous": false,
			"inputs": [
				{
					"indexed": true,
					"internalType": "uint256",
					"name": "itemId",
					"type": "uint256"
				},
				{
					"indexed": true,
					"internalType": "address",
					"name": "nftContract",
					"type": "address"
				},
				{
					"indexed": true,
					"internalType": "uint256",
					"name": "tokenId",
					"type": "uint256"
				},
				{
					"indexed": false,
					"internalType": "address",
					"name": "seller",
					"type": "address"
				},
				{
					"indexed": false,
					"internalType": "address",
					"name": "moneyMintAddress",
					"type": "address"
				},
				{
					"indexed": false,
					"internalType": "uint256",
					"name": "price",
					"type": "uint256"
				},
				{
					"indexed": false,
					"internalType": "uint256",
					"name": "amount",
					"type": "uint256"
				},
				{
					"indexed": false,
					"internalType": "uint256",
					"name": "left",
					"type": "uint256"
				},
				{
					"indexed": false,
					"internalType": "enum marketPlaceAitdV2_1.Status",
					"name": "sold",
					"type": "uint8"
				}
			],
			"name": "MarketItemCancel",
			"type": "event"
		},
		{
			"anonymous": false,
			"inputs": [
				{
					"indexed": true,
					"internalType": "uint256",
					"name": "itemId",
					"type": "uint256"
				},
				{
					"indexed": true,
					"internalType": "address",
					"name": "nftContract",
					"type": "address"
				},
				{
					"indexed": true,
					"internalType": "uint256",
					"name": "tokenId",
					"type": "uint256"
				},
				{
					"indexed": false,
					"internalType": "address",
					"name": "seller",
					"type": "address"
				},
				{
					"indexed": false,
					"internalType": "address",
					"name": "moneyMintAddress",
					"type": "address"
				},
				{
					"indexed": false,
					"internalType": "uint256",
					"name": "price",
					"type": "uint256"
				},
				{
					"indexed": false,
					"internalType": "uint256",
					"name": "amount",
					"type": "uint256"
				},
				{
					"indexed": false,
					"internalType": "uint256",
					"name": "left",
					"type": "uint256"
				},
				{
					"indexed": false,
					"internalType": "enum marketPlaceAitdV2_1.Status",
					"name": "sold",
					"type": "uint8"
				},
				{
					"indexed": false,
					"internalType": "enum marketPlaceAitdV2_1.ContractType",
					"name": "ctype",
					"type": "uint8"
				}
			],
			"name": "MarketItemCreated",
			"type": "event"
		},
		{
			"anonymous": false,
			"inputs": [
				{
					"indexed": true,
					"internalType": "address",
					"name": "user",
					"type": "address"
				},
				{
					"indexed": true,
					"internalType": "uint256",
					"name": "itemId",
					"type": "uint256"
				},
				{
					"indexed": false,
					"internalType": "uint256",
					"name": "price",
					"type": "uint256"
				}
			],
			"name": "MarketItemPriceChange",
			"type": "event"
		},
		{
			"anonymous": false,
			"inputs": [
				{
					"indexed": true,
					"internalType": "uint256",
					"name": "itemId",
					"type": "uint256"
				},
				{
					"indexed": true,
					"internalType": "address",
					"name": "nftContract",
					"type": "address"
				},
				{
					"indexed": true,
					"internalType": "uint256",
					"name": "tokenId",
					"type": "uint256"
				},
				{
					"indexed": false,
					"internalType": "address",
					"name": "seller",
					"type": "address"
				},
				{
					"indexed": false,
					"internalType": "address",
					"name": "buyer",
					"type": "address"
				},
				{
					"indexed": false,
					"internalType": "address",
					"name": "moneyMintAddress",
					"type": "address"
				},
				{
					"indexed": false,
					"internalType": "uint256",
					"name": "price",
					"type": "uint256"
				},
				{
					"indexed": false,
					"internalType": "uint256",
					"name": "amount",
					"type": "uint256"
				},
				{
					"indexed": false,
					"internalType": "uint256",
					"name": "left",
					"type": "uint256"
				},
				{
					"indexed": false,
					"internalType": "uint256",
					"name": "fee",
					"type": "uint256"
				},
				{
					"indexed": false,
					"internalType": "uint256",
					"name": "royalty",
					"type": "uint256"
				},
				{
					"indexed": false,
					"internalType": "enum marketPlaceAitdV2_1.Status",
					"name": "sold",
					"type": "uint8"
				},
				{
					"indexed": false,
					"internalType": "enum marketPlaceAitdV2_1.ContractType",
					"name": "ctype",
					"type": "uint8"
				}
			],
			"name": "MarketItemSold",
			"type": "event"
		},
		{
			"anonymous": false,
			"inputs": [
				{
					"indexed": true,
					"internalType": "address",
					"name": "previousOwner",
					"type": "address"
				},
				{
					"indexed": true,
					"internalType": "address",
					"name": "newOwner",
					"type": "address"
				}
			],
			"name": "OwnershipTransferred",
			"type": "event"
		},
		{
			"anonymous": false,
			"inputs": [
				{
					"indexed": true,
					"internalType": "address",
					"name": "collectionAddress",
					"type": "address"
				},
				{
					"indexed": true,
					"internalType": "address",
					"name": "sneder",
					"type": "address"
				},
				{
					"indexed": true,
					"internalType": "address",
					"name": "receiver",
					"type": "address"
				},
				{
					"indexed": false,
					"internalType": "uint256",
					"name": "rateNumerator",
					"type": "uint256"
				}
			],
			"name": "SetRoyaltyRate",
			"type": "event"
		},
		{
			"inputs": [],
			"name": "_itemIds",
			"outputs": [
				{
					"internalType": "uint256",
					"name": "_value",
					"type": "uint256"
				}
			],
			"stateMutability": "view",
			"type": "function"
		},
		{
			"inputs": [],
			"name": "_itemsSold",
			"outputs": [
				{
					"internalType": "uint256",
					"name": "_value",
					"type": "uint256"
				}
			],
			"stateMutability": "view",
			"type": "function"
		},
		{
			"inputs": [
				{
					"internalType": "uint256",
					"name": "itemId",
					"type": "uint256"
				}
			],
			"name": "cancelMarketItem",
			"outputs": [],
			"stateMutability": "nonpayable",
			"type": "function"
		},
		{
			"inputs": [],
			"name": "constructor1",
			"outputs": [],
			"stateMutability": "nonpayable",
			"type": "function"
		},
		{
			"inputs": [
				{
					"internalType": "address",
					"name": "nftContract",
					"type": "address"
				},
				{
					"internalType": "address",
					"name": "moneyMintAddress",
					"type": "address"
				},
				{
					"internalType": "uint256",
					"name": "tokenId",
					"type": "uint256"
				},
				{
					"internalType": "uint256",
					"name": "amount",
					"type": "uint256"
				},
				{
					"internalType": "uint256",
					"name": "price",
					"type": "uint256"
				},
				{
					"internalType": "enum marketPlaceAitdV2_1.ContractType",
					"name": "ctype",
					"type": "uint8"
				}
			],
			"name": "createMarketItem",
			"outputs": [],
			"stateMutability": "nonpayable",
			"type": "function"
		},
		{
			"inputs": [
				{
					"internalType": "address",
					"name": "nftContract",
					"type": "address"
				},
				{
					"internalType": "address",
					"name": "moneyMintAddress",
					"type": "address"
				},
				{
					"internalType": "uint256",
					"name": "itemId",
					"type": "uint256"
				},
				{
					"internalType": "uint256",
					"name": "amount",
					"type": "uint256"
				},
				{
					"internalType": "uint256",
					"name": "price",
					"type": "uint256"
				}
			],
			"name": "createMarketSale",
			"outputs": [],
			"stateMutability": "payable",
			"type": "function"
		},
		{
			"inputs": [],
			"name": "feeAddress",
			"outputs": [
				{
					"internalType": "address",
					"name": "",
					"type": "address"
				}
			],
			"stateMutability": "view",
			"type": "function"
		},
		{
			"inputs": [],
			"name": "feeDenominator",
			"outputs": [
				{
					"internalType": "uint256",
					"name": "",
					"type": "uint256"
				}
			],
			"stateMutability": "view",
			"type": "function"
		},
		{
			"inputs": [],
			"name": "feeNumerator",
			"outputs": [
				{
					"internalType": "uint256",
					"name": "",
					"type": "uint256"
				}
			],
			"stateMutability": "view",
			"type": "function"
		},
		{
			"inputs": [
				{
					"internalType": "uint256",
					"name": "item",
					"type": "uint256"
				}
			],
			"name": "getItemsInfo",
			"outputs": [
				{
					"components": [
						{
							"internalType": "uint256",
							"name": "itemId",
							"type": "uint256"
						},
						{
							"internalType": "address",
							"name": "nftContract",
							"type": "address"
						},
						{
							"internalType": "uint256",
							"name": "tokenId",
							"type": "uint256"
						},
						{
							"internalType": "address",
							"name": "seller",
							"type": "address"
						},
						{
							"internalType": "address",
							"name": "moneyMintAddress",
							"type": "address"
						},
						{
							"internalType": "uint256",
							"name": "price",
							"type": "uint256"
						},
						{
							"internalType": "uint256",
							"name": "amount",
							"type": "uint256"
						},
						{
							"internalType": "uint256",
							"name": "left",
							"type": "uint256"
						},
						{
							"internalType": "enum marketPlaceAitdV2_1.Status",
							"name": "sold",
							"type": "uint8"
						},
						{
							"internalType": "enum marketPlaceAitdV2_1.ContractType",
							"name": "ctype",
							"type": "uint8"
						}
					],
					"internalType": "struct marketPlaceAitdV2_1.MarketItem",
					"name": "",
					"type": "tuple"
				}
			],
			"stateMutability": "view",
			"type": "function"
		},
		{
			"inputs": [
				{
					"internalType": "uint256",
					"name": "itemId",
					"type": "uint256"
				},
				{
					"internalType": "uint256",
					"name": "newPrice",
					"type": "uint256"
				}
			],
			"name": "modifyPrice",
			"outputs": [],
			"stateMutability": "nonpayable",
			"type": "function"
		},
		{
			"inputs": [
				{
					"internalType": "address",
					"name": "",
					"type": "address"
				},
				{
					"internalType": "address",
					"name": "",
					"type": "address"
				},
				{
					"internalType": "uint256[]",
					"name": "",
					"type": "uint256[]"
				},
				{
					"internalType": "uint256[]",
					"name": "",
					"type": "uint256[]"
				},
				{
					"internalType": "bytes",
					"name": "",
					"type": "bytes"
				}
			],
			"name": "onERC1155BatchReceived",
			"outputs": [
				{
					"internalType": "bytes4",
					"name": "",
					"type": "bytes4"
				}
			],
			"stateMutability": "nonpayable",
			"type": "function"
		},
		{
			"inputs": [
				{
					"internalType": "address",
					"name": "",
					"type": "address"
				},
				{
					"internalType": "address",
					"name": "",
					"type": "address"
				},
				{
					"internalType": "uint256",
					"name": "",
					"type": "uint256"
				},
				{
					"internalType": "uint256",
					"name": "",
					"type": "uint256"
				},
				{
					"internalType": "bytes",
					"name": "",
					"type": "bytes"
				}
			],
			"name": "onERC1155Received",
			"outputs": [
				{
					"internalType": "bytes4",
					"name": "",
					"type": "bytes4"
				}
			],
			"stateMutability": "nonpayable",
			"type": "function"
		},
		{
			"inputs": [
				{
					"internalType": "address",
					"name": "",
					"type": "address"
				},
				{
					"internalType": "address",
					"name": "",
					"type": "address"
				},
				{
					"internalType": "uint256",
					"name": "",
					"type": "uint256"
				},
				{
					"internalType": "bytes",
					"name": "",
					"type": "bytes"
				}
			],
			"name": "onERC721Received",
			"outputs": [
				{
					"internalType": "bytes4",
					"name": "",
					"type": "bytes4"
				}
			],
			"stateMutability": "nonpayable",
			"type": "function"
		},
		{
			"inputs": [],
			"name": "owner",
			"outputs": [
				{
					"internalType": "address",
					"name": "",
					"type": "address"
				}
			],
			"stateMutability": "view",
			"type": "function"
		},
		{
			"inputs": [],
			"name": "renounceOwnership",
			"outputs": [],
			"stateMutability": "nonpayable",
			"type": "function"
		},
		{
			"inputs": [
				{
					"internalType": "address",
					"name": "",
					"type": "address"
				}
			],
			"name": "royaltyInfos",
			"outputs": [
				{
					"internalType": "address",
					"name": "owner",
					"type": "address"
				},
				{
					"internalType": "address",
					"name": "receiver",
					"type": "address"
				},
				{
					"internalType": "uint256",
					"name": "rate",
					"type": "uint256"
				}
			],
			"stateMutability": "view",
			"type": "function"
		},
		{
			"inputs": [],
			"name": "royaltyRateDenominator",
			"outputs": [
				{
					"internalType": "uint256",
					"name": "",
					"type": "uint256"
				}
			],
			"stateMutability": "view",
			"type": "function"
		},
		{
			"inputs": [
				{
					"internalType": "uint256",
					"name": "_feeNumberator",
					"type": "uint256"
				},
				{
					"internalType": "uint256",
					"name": "_feeDenominator",
					"type": "uint256"
				}
			],
			"name": "setFee",
			"outputs": [],
			"stateMutability": "nonpayable",
			"type": "function"
		},
		{
			"inputs": [
				{
					"internalType": "address",
					"name": "to",
					"type": "address"
				}
			],
			"name": "setFeeAddress",
			"outputs": [],
			"stateMutability": "nonpayable",
			"type": "function"
		},
		{
			"inputs": [
				{
					"internalType": "address",
					"name": "collectionAddress",
					"type": "address"
				},
				{
					"internalType": "address",
					"name": "receiver",
					"type": "address"
				},
				{
					"internalType": "uint256",
					"name": "rateNumerator",
					"type": "uint256"
				}
			],
			"name": "setRoyaltyRate",
			"outputs": [],
			"stateMutability": "nonpayable",
			"type": "function"
		},
		{
			"inputs": [
				{
					"internalType": "uint256",
					"name": "number",
					"type": "uint256"
				}
			],
			"name": "setRoyaltyRateDenominator",
			"outputs": [],
			"stateMutability": "nonpayable",
			"type": "function"
		},
		{
			"inputs": [
				{
					"internalType": "bytes4",
					"name": "interfaceId",
					"type": "bytes4"
				}
			],
			"name": "supportsInterface",
			"outputs": [
				{
					"internalType": "bool",
					"name": "",
					"type": "bool"
				}
			],
			"stateMutability": "view",
			"type": "function"
		},
		{
			"inputs": [
				{
					"internalType": "address",
					"name": "newOwner",
					"type": "address"
				}
			],
			"name": "transferOwnership",
			"outputs": [],
			"stateMutability": "nonpayable",
			"type": "function"
		}
	]
}